:100000000C94BB020C94D8020C94D8020C94D80225
:100010000C94D8020C94D8020C94D8020C94D802F8
:100020000C94D8020C94D8020C9471130C94B31253
:100030000C942F190C94D8020C94D8020C94D8026A
:100040000C94D8020C94D8020C94D8020C94D802C8
:100050000C94D8020C94EE180C94D8020C94D8028C
:100060000C94D8020C94D8020C94D8020C94D802A8
:100070000C94D8020C94D8020C94D8020C94D80298
:100080000C94D8020C94D8020C94D8020C94D80288
:100090000C94D8020C94D8020C94D8020C94D80278
:1000A0000C94D8020C94D8020C94D802BB03C00361
:1000B000CA03BE03C303C803C60378057805AB05AE
:1000C000AB05160634063E073E073F06B306C406D8
:1000D000C406A508A808AB08AE08B108B408B7085C
:1000E000C610ED109B12ED109B1239115C119B1282
:1000F0005112611235002B00E000E10001510000B7
:100100001E00140004001D006400FA001F001A0005
:1001100016001B0039002900200008000700060017
:10012000E3002C002100150009001900E200F9008D
:10013000220017000A0005000000FB0023002A002F
:10014000000028000000FC002E002A00000028000B
:100150000000490023001C000B00110000004908AA
:10016000240018000D001000E600120825000C0005
:100170000E00360065000151260012000F00370006
:10018000B5004C0027001300330038003000115038
:100190002D002F003461E500310000000100010056
:1001A00001000100010000003A00F900FA003D04DE
:1001B0004C0246003B00F100EF00FB00490101004A
:1001C0003C00ED00EE004700490201003D00F20056
:1001D000F000FC00010046043E00F300F400F500CE
:1001E0000000B200A800A9000000AA00000048001A
:1001F0003E00010000000100000001003F0001007E
:10020000010001000000010040004A005000B6005B
:10021000F1000100410052005100B000F200010065
:1002200042004D004F00B7000100010043004B00A9
:100230004E000100010012504400450068006900B2
:100240006A000000095D01000100010001000000DA
:100250001E0223021E020100010001001F022402EF
:100260001F020100010001002002250220020100FE
:10027000010001002102260221020100010001000B
:1002800022022702220201000000010023020100D5
:100290000000010000000100010001000000010059
:1002A0000000010001000100010001000000010048
:1002B00053005F005C0059006200010054006000C0
:1002C0005D005A0062000100550061005E005B00A5
:1002D00063000100560057005700580058001350A3
:1002E0000100010001000100010000003B000100CD
:1002F00001000100370000001E00010001000E0097
:100300000B002F001F000F0001000100330001004F
:100310002000010001000C0012000100210001007A
:10032000010018000100300022000D00340001001F
:1003300000002400230036000000380000002700E1
:1003400043002A0000002800000001000100010015
:100350000100010000000100010001000100010096
:100360000100010001000100010001000100010085
:10037000AA0001000100010001000100A900010024
:100380000100010001001050A8000100010001005F
:100390000100000005010980A101850319012AB7A8
:1003A00000150126B700950175108100C0050C09E4
:1003B00001A101850419012AA002150126A00295B8
:1003C0000175108100C005010906A1018506050718
:1003D00019E029E715002501950875018102050737
:1003E000190029EF1500250195F075018102050816
:1003F0001901290595057501910295017503910172
:10040000C005010902A1010901A10005091901297D
:1004100008150025019508750181020501093009BB
:10042000311581257F9502750881060938158125CA
:100430007F950175088106050C0A38021581257F14
:10044000950175088106C0C00660FF0961A1010918
:1004500062150026FF0095207508810209631500CA
:1004600026FF00952075089102C005010906A1012B
:10047000050719E029E71500250195087501810296
:100480009501750881010507190029FF150026FF50
:10049000009506750881000508190129059505755F
:1004A000019102950175039101C0090274000401D4
:1004B00000A0FA0904000001030101000921110153
:1004C0000001224000070581030800010904010022
:1004D000020300000009211101000122220007058A
:1004E0008303200001070504032000010904020022
:1004F0000103010200092111010001224700070543
:10050000820308000109040300010300000009211F
:1005100011010001226D0007058503200001120171
:100520000002000000089732744901000102000136
:1005300016034500720067006F0044006F007800EA
:10054000200045005A00000028035A0053004100D3
:10055000200054006500630068006E006F006C00AE
:100560006F006700790020004C006100620073009A
:1005700000000403090411241FBECFEFDAE0DEBF40
:10058000CDBF11E0A0E0B1E0EAE7F1E402C00590E0
:100590000D92AA36B107D9F722E0AAE6B1E001C070
:1005A0001D92A43AB207E1F70E94D1140C94BB202B
:1005B0000C9400001092F3010E943E1C2FEF84E384
:1005C0009CE0215080409040E1F700C000009AE09C
:1005D00088E10FB6F894A895809360000FBE9093C1
:1005E0006000FFCFA7E1B0E0E8EFF2E00C94341E2A
:1005F0004B8B5C8B6D8B7E8B8F8B61111092E70127
:1006000086E09E01235F3F4FD901E82F1D92EA95B6
:10061000E9F795E0FE017396D90101900D929A9544
:10062000E1F79C894E895F897B897D879E876F87EB
:10063000598B488BF901DE01179601900D928A952E
:10064000E1F7CE0107960E948A0C81113EC086E038
:10065000FE013796DE01119601900D928A95E1F721
:10066000FF81E8856A857B856115710531F0EF3F73
:1006700031F481E0FF3F19F403C081E001C080E064
:1006800080FD23C02091940130E0C901019687705C
:1006900099274091C50150E08417950779F1F983B6
:1006A000EA837D836C8396E0929FD001939FB00D87
:1006B0001124AB56BE4FFE01319601900D929A95D2
:1006C000E1F7809394010E94170C16E08091C50118
:1006D00090919401891709F1189FC00111248B563C
:1006E0009E4F0E948A0C8823C1F08091C50190E042
:1006F0000196877099278093C501E8CF1092F30186
:100700000E943E1C109294011092C501EEE8F1E0A7
:1007100086E0DF011D928A95E9F76796E3E00C9485
:10072000501E982F92959F7019F0892F24E001C0D8
:1007300020E0982F9695969511F02E5F892F982F8F
:10074000969509F02F5F822F0895CF93C82F0E94AE
:10075000910356985E9825982D9826982E9827985C
:100760002F9890E0FC013197E730F105A8F4EA5AA0
:10077000FF4F0C94871F259A2D9A0EC0259A2D9A0B
:10078000269A2E9A09C0259A2D9A04C0259A2D9A48
:10079000269A2E9A279A2F9A8C2FCF910895A5E208
:1007A000B0E0E5EDF3E00C942C1EFC01808191811A
:1007B00023813481232B31F09F3F31F491E08F3F2F
:1007C00019F403C091E001C090E090FD95C37F0152
:1007D00085E0DE01919601900D928A95E1F7D701AF
:1007E00012962C9189A19AA1222349F00E94311BD3
:1007F000182F682F89A19AA10E94A11B03C00E94F3
:100800006D1B182F69A17AA1812F0E9453098C01B9
:1008100090912102F7018281992309F44DC0811141
:100820005CC3E0916D01E330A0F481E08E0F809312
:100830006D01F0E0EE0FFF1FE95AFD4FD7018D91DA
:100840009C919183808382E08983CE0101960E94EE
:10085000A514BFEFE3EDF0E3B150E040F040E1F765
:1008600000C0000080916D01833009F036C3109202
:100870006D01EDE5F2E0A7E5B2E083E692E03181BB
:1008800011962C91119732132EC030812C91321376
:100890002AC0329612968E179F0789F784E08983C3
:1008A00081E0809322028EEF8A8310922102CE0192
:1008B00001960E94A51411C3909122029923C1F0C0
:1008C000811102C087E001C086E08983D7018C9145
:1008D0008A8311968C918B838EEF8C83CE01019647
:1008E0000E94A51405C083E0898310922202DBCF09
:1008F0000F3ABDE51B07D1F5F70182818823B1F1DD
:100900009091260281E0890F8770987F853020F4CE
:10091000892B8093260202C09093260280912602A2
:100920008770FFEF8F9FC00111249595879595954E
:1009300087959927909389008093880090938B00E6
:1009400080938A0090938D0080938C0040912602C2
:100950005091270260912802709129028FE090E067
:100960000E94FE1E809138020E94A503F701828139
:10097000882309F46BC00C352DE5120709F461C01A
:1009800058F401159CE5190799F00F3D1C4509F035
:100990005DC00E94060B4BC00E35BDE51B0709F478
:1009A00048C008F450C0093A1D4509F440C04EC083
:1009B0001092F3010E943E1C2FEF84E39CE0215033
:1009C00080409040E1F700C00000F89481E08093FF
:1009D000E00080E28093D8001092C900AFE1BEE44D
:1009E0001197F1F700C000001DBA109268001CBCFE
:1009F00010BE1FBA10927A0010926E0010926F0013
:100A000010927100109272001092C9001092BC00F6
:100A100014B817B81AB81DB810BA1092BC0015B89F
:100A200018B81BB81EB811BA0C94003F56C20E94E9
:100A3000DA0280917B0282FB882780F991E0892786
:100A400003C081E001C080E00E94FB0BD701129639
:100A50008C9112970D911C91882349F0C8010E9436
:100A6000311BD82E682FC8010E94A11B04C0C801E9
:100A70000E946D1BD82EB8018D2D0E9453090E9433
:100A80006C09B82E192F982ED70112960C91129737
:100A90001596AC90A2949FE0A9228091C601877020
:100AA000B9F00023A9F0812F807F803421F080E20B
:100AB0008B0D883068F080917B0282FF09C082E054
:100AC0000E94DE0B8091C6018770DD24D3948111D2
:100AD000D12CC12EC2948FE0C8228C2D90E08C3096
:100AE000910508F0CBC1FC01E35AFF4F0C94871F1E
:100AF000812F807F1F70882311F01295107F0023B3
:100B0000B9F0112309F4A8C180E28B0D883010F0F0
:100B1000911006C08091F301182B1093F30105C0CA
:100B20008091E701182B1093E7010E94890B94C173
:100B30008B2D0E94631C112309F4A0C180E28B0D50
:100B4000883080F1992071F110958091E701182388
:100B50001093E7012AC0812F807F1F70803211F02F
:100B60001295107F8B2D992021F0B1E09B16D9F1C1
:100B700047C080917B0282FD1BC0002369F01123D6
:100B800039F08091F301182B1093F3010E94890B27
:100B900080E00E94981C72C180E00E94631C1123B7
:100BA00009F46CC1812F0E94820B0E94890B66C1DF
:100BB000002381F08091E801AA2051F0E1E0AE121B
:100BC00007C0182B181709F459C11093E80156C132
:100BD000812B10C0AA2021F0F1E0AF1609F44EC11C
:100BE0000E947C0B1FC0002341F021E02A1508F46D
:100BF00045C1812F0E94591C41C1A1103FC112C0A3
:100C0000002319F0AA20A9F327C1AA2059F089339B
:100C100009F031C18FEF97EEA3E081509040A040E2
:100C2000E1F727C1812F0E94521C28C1812F869590
:100C30008695837019F0813061F020C1002321F086
:100C40008B2D912F937002C080E090E00E94961946
:100C50001BC1002321F08B2D912F937002C080E0E7
:100C600090E00E94801910C18B2D002319F00E9482
:100C7000BA1A02C00E94001A0E94D91905C1812F18
:100C80008370A9F50111FEC04B2D42954695477022
:100C9000440F440F8B2D8F7090E09C01042E01C0F7
:100CA000220F0A94EAF7B4FE08C08FE090E001C07A
:100CB000880F4A95EAF7809501C080E01695169551
:100CC0001370123069F088F49091E901113019F035
:100CD000822B892302C0922B892B0E94191CD2C01F
:100CE000822B9091E9018927F8CF822BF6CF002340
:100CF00019F0812F817001C08695882309F4C2C044
:100D00004B2D429546954770440F440F8B2D8F70A5
:100D100090E09C01042E01C0220F0A94EAF7B4FE71
:100D200008C08FE090E001C0880F4A95EAF78095EF
:100D300001C080E0169516951370123059F078F4C2
:100D400090913802113019F0822B892309C0922B1F
:100D5000892B06C0822B90913802892701C0822BF3
:100D60000E94D61B8FC01F70002339F0812F0E9474
:100D70000D1C8B2D0E94591C85C08B2D0E94521C6E
:100D8000812F0E94001C7EC08B2DB2EF9B1669F153
:100D9000B91538F0E0EF9E1659F0F1EF9F1601F10A
:100DA00057C023EF921641F194EF9916A9F050C065
:100DB000002369F0A11062C01F7181E090E001C0C2
:100DC000880F1A95EAF79091380289271FC0A1E091
:100DD000AA1508F453C0F0CF80917B0282FD19C0A0
:100DE000002329F0812F8F7126C00023D9F3812F92
:100DF0008F710E94001C42C0002339F01F7181E0F6
:100E000001C0880F1A95EAF701C080E00E94D61B46
:100E100035C0002399F01F71812F0E940D1C809115
:100E20007B0282FF07C0B8E01B9FC00111248360D2
:100E30008093C601812F0E940D1C20C081E00E947A
:100E4000DE0BE1E0EA15D0F482E00E94DE0B16C072
:100E5000002321F0AA2031F28B2D9BCEAA2039F25B
:100E6000893349F4FFEF27EE83E0F15020408040C2
:100E7000E1F700C000008B2D0E94631C88EF8C0DF1
:100E8000843010F40E94AC19DD20B1F08091C601CD
:100E900080FD12C0D70112961C9285958595859587
:100EA0000E940D1CC7010E94CF038091C601859549
:100EB000859585950E94001C85E0F701DE0111965D
:100EC00001900D928A95E1F709811A81C8010E946B
:100ED0006D1BB8010E9453090FC08091C601877035
:100EE00059F0F7018281882339F080917B0282FFDB
:100EF00003C082E00E94DE0BA596EBE00C94481E36
:100F000080E290E0909318018093170180916C012A
:100F100081110EC00E943D1D81E080936C012FEF76
:100F200083ED90E3215080409040E1F700C0000045
:100F300064E670E080E40E94431D90931801809362
:100F40001701892B09F04EC064E670E080E00E9432
:100F5000B81D9093180180931701892B09F042C0A6
:100F600064E670E080E00E94B81D909318018093C1
:100F70001701892BB9F564E670E08FE30E94B81D74
:100F80009093180180931701892B61F50E940D1E23
:100F900064E670E080E40E94431D90931801809302
:100FA0001701892BF9F464E670E08CE00E94B81D0B
:100FB0009093180180931701892BA1F464E670E0E7
:100FC00080E00E94B81D9093180180931701892B2F
:100FD00049F464E670E08FE30E94B81D9093180115
:100FE000809317010E940D1E809117010895CF93E1
:100FF000DF9356985E9825982D9826982E982798D6
:101000002F98C8E8D0E08FEF90E099838883AAE812
:10101000B0E011969C938E93ECE8F0E0918380838E
:10102000259A2D9A2FEF80E792E021508040904042
:10103000E1F700C00000269A2E9A2FEF80E792E099
:10104000215080409040E1F700C00000279A2F9A7D
:101050002FEF80E792E0215080409040E1F700C000
:10106000000025982D982FEF80E792E021508040D6
:101070009040E1F700C0000026982E982FEF80E7FF
:1010800092E0215080409040E1F700C00000279896
:101090002F988091260287702FEF829FC001112424
:1010A0009595879595958795992799838883119626
:1010B0009C938E939183808356985E9825982D9863
:1010C00026982E9827982F98DF91CF910895CF9347
:1010D000E82F873080F58091170190911801892BB6
:1010E00009F047C0CE2F64E670E080E40E94431D03
:1010F0009093180180931701892BD1F464E670E076
:1011000082E10E94B81D9093180180931701892BEA
:1011100079F481E090E001C0880FCA95EAF764E6AF
:1011200070E080950E94B81D90931801809317017C
:101130000E940D1E1EC090E0FC013797E730F105BC
:10114000C0F4E759FF4F0C94871F209A289811C0CC
:10115000219A29980EC0229A2A980BC0239A2B987C
:1011600008C0529A5A9805C0539A5B9802C03E9A9A
:101170004698CF91089520982898219829982298E8
:101180002A9823982B9852985A9853985B983E988F
:1011900046980895CF93873040F58091170190913C
:1011A0001801892B59F564E670E081E40E94431D23
:1011B0009093180180931701892B11F0C0E011C0A2
:1011C00084E690E00E94E81D97FF05C09093180107
:1011D00080931701F3CFC82FC09510921801109279
:1011E00017010E940D1E8C2F0AC09FB18FB1807F06
:1011F000869586959370892B809501C080E0CF916C
:1012000008958098889A8198899A84988C9A85986C
:101210008D9A86988E9A87988F9A089580E008957F
:1012200090917A0292FF0DC0282F2871283019F46E
:10123000877F846006C0282F2471243011F48B7FAF
:10124000886093FF0DC0282F2871283119F4877EFC
:10125000846106C0282F2471243111F48B7E8861AB
:1012600020917B0220FF0DC0382F3871383019F4DF
:10127000877F816006C0382F3171313011F48E7F45
:10128000886021FF0DC0282F2871283119F4877E2E
:10129000816106C0282F2171213111F48E7E886171
:1012A00094FD877E08957E30A0F4663090F494E536
:1012B000899FF001112486E0789FE00DF11D112433
:1012C000E60FF11DEE0FFF1FEC50FF4F859194913B
:1012D000089580E090E00895CF93DF9382389105E0
:1012E00069F1B0F48133910509F46FC048F4893293
:1012F000910509F465C08A32910509F46BC08AC072
:101300008533910509F457C089339105B9F082C03E
:10131000833E910571F138F4803E9105B1F0823E33
:10132000910511F177C0863E9105B9F1873E91058F
:10133000C9F1843E910509F06DC024C020917A0264
:1013400020FD53C021FD51C065C080917A0280FD0F
:1013500046C080917B0280FF48C080917A0284FD64
:1013600050C183EE90E04FC180917A0282FF3AC073
:10137000F4CF80917A0282FD35C080917B0280FD9E
:1013800034C0EBCF80917B0281FF35C080917A021F
:1013900084FD37C187EE90E036C180917A0283FFE9
:1013A00027C0F4CF80917A0283FD22C080917B0216
:1013B00081FD21C0EBCF80917A0285FD1FC021C045
:1013C00080917A0285FD1DC019C080917A0286FD48
:1013D0001BC01DC080917A0286FD19C015C089E32B
:1013E00090E011C182EE90E00EC180EE90E00BC162
:1013F00086EE90E008C184EE90E005C189E290E0BD
:1014000002C185E390E0FFC08AE290E0FCC081E386
:1014100090E0F9C0811531E5930708F069C08115A6
:1014200040E59407F0F09C0174E0369527957A9595
:10143000E1F7922F9370482F437021E030E002C013
:10144000220F331F4A95E2F73C68392B982F9F7083
:101450009695969540E2949FC0011124822B932B80
:10146000D2C0883E910568F5803E910508F0CBC05A
:10147000883A9105B8F4853A910548F0855AE82FE5
:10148000F0E0E75EFE4F808190E09064BCC0813068
:10149000910509F4B3C008F4B4C08430910508F490
:1014A000B0C0B1C08F3B910508F0ABC0885AE82F9F
:1014B000F0E0EE0FFF1FE45EFE4F808191819464A7
:1014C000A2C0811520E2920758F4811531E09307FC
:1014D00008F099C08D3E910508F493C0906593C0C3
:1014E000811540E4940708F48CC09F70906A8BC00B
:1014F000811525E5920708F042C0811534E5930770
:1015000028F0982F8827846F906A7DC0811543E565
:101510009407B0F09C012370332741E050E002C0F3
:10152000440F551F2A95E2F7282F2695269580E22D
:10153000289F90011124CA01822B932B9A6863C0C3
:10154000811522E5920728F4982F8827816F906AE9
:101550005AC09C012370332741E050E002C0440F81
:10156000551F2A95E2F7282F2695269580E2289F79
:1015700090011124CA01822B932B9C6844C0EC017A
:10158000811539E59307A8F48115984528F09C2F1B
:101590008827806F906A37C0C11586E5D80788F51F
:1015A0008C2F0E9410098F7190E0982F88279062ED
:1015B0002AC081152AE5920790F48C2F8F700E9423
:1015C000100994E0D695C7959A95E1F7CF70D0E0D1
:1015D000DC2FCC27D0699E01282BC90114C090565E
:1015E0008115904270F48D2F8F710E941009282F61
:1015F0002F71CE0199279062922B05C081E090E077
:1016000002C080E090E0DF91CF91089568EE7EEF18
:1016100080E090E00E940A1F60E082E090E00E947B
:10162000EC1E60E083E090E00E94EC1E1092E90165
:1016300060E084E090E00E94EC1E64E082E290E0D2
:101640000E94EC1E60E085E090E00E94EC1E60E0ED
:1016500086E090E00E94EC1E6FEF87E090E00E9431
:10166000EC1E40E050E0BA0188E090E00E94FE1ECF
:1016700060E08DE090E00E94EC1E40E050E0BA0196
:1016800088E190E00E94FE1E60E087E190E00E9409
:10169000EC1E40E050E0BA018CE190E00E94FE1E9A
:1016A00060E070E080E290E00E940A1F40E050E0BD
:1016B000BA0188E190E00E94FE1E1092260210926C
:1016C0002702109228021092290284E080932602B9
:1016D00040912602509127026091280270912902C0
:1016E0008FE090E00E94FE1E40E050E0BA0183E1EE
:1016F00090E00E94FE1E08958091E80181111092F1
:10170000E801089580959091F30189238093F30176
:1017100008959091F3018091E701982B90936E01C9
:101720008091E8018823D9F0892B80936E01809104
:101730000A01882331F080917A0287FF02C08EE18E
:1017400001C086E0E0E7F1E090E0815028F02191CF
:101750002223D9F39F5FF9CF91110E947C0B40E2C5
:1017600050E067EC71E08EE691E00E94AE20892B9C
:1017700021F180E2EEE6F1E0A7ECB1E001900D92FC
:101780008A95E1F7E0917102F09172023097A9F029
:1017900080910A01882359F080917A0287FF07C05F
:1017A00080916E0180936F0186E080936E010280CC
:1017B000F381E02D8EE691E0099508952091C60110
:1017C000809582238093C601982F977099F430E01A
:1017D000482F082E000C550B2417350759F090910F
:1017E0007B0292FF07C08595859585950E94001C18
:1017F0001092C6010895CF93C0917B02C2FB992736
:1018000090F9981791F080FBC2F9C0937B02609128
:101810007A0284E090E00E94EC1E6C2F82E290E05D
:101820000E94EC1E82E00E94DE0BCF910895809111
:10183000C50190919401891719F08F5F8770FBCFD4
:1018400008950F931F93CF93DF9380919301829517
:101850008F7009F05AC080919001882309F455C017
:101860008091C5011091940160918E0170918F015A
:10187000C0919101D091920191E06F3F09F090E009
:10188000292F06E0811709F440C0209721F07F3FFF
:1018900021F030E003C031E001C0322F90E030FD94
:1018A00031C0089FF001099FF00D1124DF01AB56F4
:1018B000BE4F11963C911197371324C03C913613BB
:1018C00021C012963C91129731111CC013964D9174
:1018D0005C9114974C1B5D0B483C510598F480912A
:1018E00093018F70806180939301E656FE4F808153
:1018F0008F70806180838EE891E00E94CF030E9408
:10190000170C03C001968770BDCFDF91CF911F9157
:101910000F910895A1E1B0E0E0E9FCE00C942C1EE9
:101920008C0185E0F801DE011D9601900D928A95EB
:10193000E1F7F801E28090918E0160918F01409172
:101940009101509192014115510531F06F3F31F4F1
:1019500081E09F3F19F403C081E001C080E0F82FCF
:10196000F1709F2E80FD1BC1F80130812181C38061
:10197000D4808EE8A82E81E0B82EF0909001F60178
:10198000E41BF50BFF2009F4C7C080919301E83CEC
:10199000F10508F092C0482F407F09F051C0621352
:1019A00011C093130FC0FE2CE1100CC08F7080612A
:1019B00080939301C5010E94CF0380919301F801A8
:1019C00085832AC1C114D10431F02F3F31F481E065
:1019D0003F3F19F403C081E001C080E080FD03C0F7
:1019E00081E08E2502C080E090E0F82FF170FF2E9C
:1019F00080FF1CC08091C5014091940156E084177E
:101A000009F4E8C090E0589FF001599FF00D1124AF
:101A1000EB56FE4F6181261306C06081631303C03D
:101A20006281E61203C001968770E9CFFE2CEE209A
:101A300009F4F2C08091930181608093930149C0C1
:101A4000621306C0931304C0E11002C0F80186C0FF
:101A5000C8010E941E1C882351F1EE2041F1209103
:101A60009301822F82958F7090E0029774F080919D
:101A70008E0190918F0198878F831986DB86CA86A5
:101A80002C87CE0107960E94CF0386E0F801AEE8CE
:101A9000B1E001900D928A95E1F70E94210C0AC0F5
:101AA0006217C9F0C8010E941E1C81111EC0C80126
:101AB0000E94CF03FF24F394AFC0482F407F81F7EB
:101AC0008EE891E00E94CF0386E0F50111928A959D
:101AD000E9F7F12CA1C09313E5CFE110E3CFF801B2
:101AE0008583C8010E94CF0354C0EE2001F32091EA
:101AF0009301822F82958F7090E0029734F280914B
:101B00008E0190918F019A8389831B82DD82CC8222
:101B10002E83CE010196B7CFE83CF105D0F5FE2C1F
:101B2000EE2029F2621327C0931325C02091930160
:101B300020FD18C0822F82958F70482F50E04115EC
:101B4000510581F0F80125834F30510541F08F5F39
:101B5000982F9295907F822F8F70892B8583C80153
:101B60000E94CF0386E0F801AEE8B1E001900D924B
:101B70008A95E1F751C0C8010E941E1C811185CFD2
:101B800080919301816080939301C8010E94CF03EB
:101B900043C086E0F50111928A95E9F73DC0EE2039
:101BA00009F485CFC8010E941E1CF82E882309F471
:101BB0007ECF86E0F801AEE8B1E001900D928A9503
:101BC000E1F780918E0190918F010E94601B0E942D
:101BD000210C22C03D872E878D859E850E94601B2B
:101BE000292F22952F70223028F49F7039F081110F
:101BF00005C00BC0243028F49F7049F4805E883003
:101C000020F0C8010E94CF039F2CF92C05C0F801D9
:101C10009581907F99F7F9CF8F2D6196EBE00C9429
:101C2000481EA0E0B0E0E7E1FEE00C942E1E80919B
:101C3000170190911801892B91F08091EA018F5F33
:101C40008093EA0181110BC00E94800790E090937D
:101C5000180180931701892B11F40E94F7070AE2FB
:101C600012E07801B12CC0E087E0C82ECC0E8C2F9A
:101C70000E9467088C2D0E9467088C2F0E94CA085A
:101C80008F73F7019081891721F08083DD24D3942D
:101C900001C0D12C8C2D0E94CA088F73F701978147
:101CA000891719F0878381E001C080E0D82ABD2818
:101CB0000E94BB08CF5FFFEFEF1AFF0AC730A1F603
:101CC000C091EE01CC23C9F10E9423192091EC01AF
:101CD0003091ED01AC01421B530B9A019093ED0141
:101CE0008093EC014F3F510509F020F4452B09F496
:101CF000A1C002C02FEF30E01092EE011092EB0174
:101D0000E0912402F0912502AF01425F5F4F90E025
:101D100030E08081882341F0281718F010829C2F32
:101D200003C0821B80833C2F3196E417F50789F7A7
:101D30003093EE019093EB017DC0BB2009F471C09C
:101D40000E9423199093ED018093EC01E09124020D
:101D5000F09125028091EE01A9E3B2E09F01225F9C
:101D60003F4F4EE1E80199918E015C91591731F096
:101D70005081511103C040839C9381E031961196AC
:101D8000E217F30779F78093EE0120912102809109
:101D9000F0019091F1012223C9F1892B31F42598AA
:101DA0002D9826982E9827982F988091F001909141
:101DB000F1019170892B79F48091EF01882319F05A
:101DC00026982E9802C0269A2E9A9091EF0181E0D3
:101DD00089278093EF018091F0019091F10181308A
:101DE000984750F010922102809138020E94A5037A
:101DF0001092F1011092F0018091F0019091F101A7
:101E000001969093F1018093F00118C0892BB1F0F5
:101E10001092F1011092F001809138020E94A50306
:101E20000DC080E09091EB01992309F4AECF8111B0
:101E30008DCF86CFB1108ACF81E0F4CF8B2DCDB777
:101E4000DEB7E9E00C944A1E8091190287FF11C0A9
:101E50008091E80082FD05C0809123028111F8CFB6
:101E600011C08091E8008B770BC0809123028823FA
:101E700049F08091E80080FFF8CF8091E8008E77EC
:101E80008093E8000895982F973068F59093E900C3
:101E9000981739F07091EC002091ED005091F0000E
:101EA00003C0242F762F50E021FD02C09F5FECCFAE
:101EB0003091EB003E7F3093EB003091ED003D7FA1
:101EC0003093ED003091EB0031603093EB00709374
:101ED000EC002093ED005093F0002091EE0027FDE0
:101EE000E5CF80E008958F708093E90081E0089548
:101EF00020911F02309120022617370748F0611504
:101F0000710539F42091E8002E772093E80001C094
:101F1000B901FC0120E06115710579F1809123027E
:101F20008823F1F18530F1F18091E80083FD3CC018
:101F30008091E80082FD2EC08091E80080FFEBCF09
:101F40002091F3008091F20090E0922B61157105D1
:101F500051F08830910538F421912093F1006150BF
:101F600071090196F3CF21E0089709F020E08091F4
:101F7000E8008E778093E800CECF2111CFCF0AC042
:101F800080912302882361F0853061F08091E80020
:101F900083FD0AC08091E80082FFF2CF80E00895BF
:101FA00082E0089583E0089581E008950895BC01DA
:101FB00084E00E94C3180895BC0183E00E94C31806
:101FC0000895AAE2B0E0E7EEFFE00C94341EE9E1E8
:101FD000F2E081E292E02091F10021938E179F07B9
:101FE000D1F780911A02833009F463C030F4813054
:101FF00071F0823009F49FC0B6C08A3009F48BC0FA
:102000008B3009F46EC0893009F0ADC020C08091DA
:102010001902813A09F0A7C08091E800877F809378
:10202000E80080911D0290911E02892B21F460E24C
:1020300086EF91E003C060E080E090E070E00E94F5
:10204000780F8091E8008B778093E8008CC08091B6
:102050001902813209F087C080911D0290911E0201
:10206000009719F0039709F07EC08091E800877F00
:102070008093E8008091E80082FD05C080912302F2
:102080008111F8CF70C02091F3008091F20090E0B0
:10209000922B029731F48091F100813011F086305B
:1020A00021F48091F1008093F5018091E8008B7715
:1020B00056C080911902813A09F055C080911D02E5
:1020C00090911E02892B09F04EC08091E800877F15
:1020D0008093E8008091E80080FFFCCF80910A01A6
:1020E00039C0809119028132F1F580911D029091E1
:1020F0001E02892BC1F58091E800877F8093E8005C
:102100000E94240F80911B0280930A011092F30118
:102110000E943E1C28C080911902813221F58091D5
:10212000E800877F8093E8000E94240F80911C02C2
:102130008093F40118C080911902813AA1F4809132
:10214000E800877F8093E8008091E80080FFFCCF63
:102150008091F4018093F1008091E8008E77809364
:10216000E8000E94240F8091E80083FFE4C1809181
:10217000190290911A02492F50E04A30510508F097
:10218000DAC1FA01E059FF4F0C94871F803821F023
:10219000823809F0D0C108C08091160290911702D0
:1021A000992389F082600FC080911D028F70873063
:1021B00008F0C1C18093E9008091EB0085FB88277E
:1021C00080F91092E9009091E800977F9093E800E1
:1021D0008093F1001092F10070C1282F2D7F09F03B
:1021E000AAC1882319F0823061F0A5C180911B0239
:1021F000813009F0A0C1933009F080E0809317028C
:102200002EC080911B0281112AC080911D028F7007
:102210002FEF280F263008F08EC18093E90020911F
:10222000EB0020FF1CC0933021F48091EB00806212
:1022300014C09091EB0090619093EB0021E030E0AE
:10224000A90102C0440F551F8A95E2F74093EA00A6
:102250001092EA008091EB0088608093EB0010926E
:10226000E9008091E800877F8093E8000E94240FB6
:1022700062C1811160C110911B021F778091E30040
:102280008078812B8093E3008091E800877F8093A2
:10229000E8000E94240F8091E80080FFFCCF80912D
:1022A000E30080688093E300111102C082E001C066
:1022B00083E0809323023FC18058823008F03BC105
:1022C00020911B0230911C022C3D53E0350779F51B
:1022D00083E08A838AE289834FB7F894DE011396FC
:1022E00020E03EE051E2E32FF0E050935700E4910C
:1022F00020FF03C0E295EF703F5FEF708E2F90E0FC
:10230000EA3010F0C79601C0C0968D939D932F5F61
:10231000243149F74FBF8091E800877F8093E80020
:102320006AE270E0CE0101960E94780FB4C08091FD
:102330001D0290911E02432F552743305105A9F0ED
:1023400068F44130510509F405C14230510509F0E6
:10235000F2C084E790E0EAEAF4E04BC04132510574
:1023600029F14232510589F1E6C0C901992781302E
:102370009105A1F058F0029709F0DDC0E0E3F5E027
:10238000E4918E2F90E0E0E3F5E030C0E2E7F5E085
:10239000E4918E2F90E0E2E7F5E028C0E8E4F5E074
:1023A000E4918E2F90E0E8E4F5E020C084309105C0
:1023B00008F0C1C0880F991FFC01EA5AFE4F019036
:1023C000F081E02D89E090E014C08430910508F0A0
:1023D000B2C0FC01EE0FFF1FE25BFE4F0190F081E7
:1023E000E02DDC01A65BBE4F8C9190E0009709F4D4
:1023F000A2C02091E800277F2093E80020911F02CF
:10240000309120022817390708F4C90140E00097ED
:1024100089F120912302222309F43DC02530D9F10E
:102420002091E80023FD37C02091E80022FD2FC055
:102430002091E80020FFEBCF4091F3002091F200C3
:1024400030E0342B009759F02830310540F44491A6
:102450004093F100319601972F5F3F4FF3CF41E05A
:102460002830310509F040E02091E8002E772093D4
:10247000E800CDCF4111CDCF0AC08091230288233F
:1024800051F0853041F08091E80083FD04C08091D7
:10249000E80082FFF2CF8091E8008B778093E8001C
:1024A0004AC0803809F047C08091E800877F809358
:1024B000E800809118028093F1008091E8008E7707
:1024C000D3CE811138C080911B0290911C029927B4
:1024D00002978CF58091E800877F8093E800109147
:1024E0001B02109318020E94240F111106C0809144
:1024F000E30087FD02C081E001C084E080932302F5
:1025000042E061EC81E00E94430F42E061EC82E036
:102510000E94430F42E261EC85E00E94430F42E2D9
:1025200061EC83E00E94430F42E260EC84E00E9491
:10253000430F809123028091E80083FF10C08091B7
:10254000E800877F8093E8008091EB0080628093B1
:10255000EB0005C082E190E0EEE1F5E04ACFAA96FB
:10256000E3E00C94501E1F920F920FB60F921124AD
:102570002F933F934F935F936F937F938F939F938B
:10258000AF93BF93CF93DF93EF93FF93C091E90095
:10259000CF708091EC00D82FD17080FDD0E81092E0
:1025A000E9008091F000877F8093F00078940E948A
:1025B000E10F1092E9008091F00088608093F000B4
:1025C000CD2BCF70C093E900FF91EF91DF91CF91B8
:1025D000BF91AF919F918F917F916F915F914F913B
:1025E0003F912F910F900FBE0F901F901895E8ED1F
:1025F000F0E080818E7F80831092E2001092DA00FA
:102600001092E100A0EEB0E08C9181608C9380810B
:102610008F77808319BCA7EDB0E08C918E7F8C936F
:1026200080818F7E80831092F2010895A0E0B0E057
:10263000ECE1F3E10C942F1EC8EDD0E088818F7E91
:102640008883E7EDF0E080818160808384E082BF51
:1026500081E08093F20188818E7F888302EE10E012
:10266000F80110821092DA0081EEC82ED12CF6010A
:10267000108288818F7788838881806888838881A9
:102680008F7D888319BC1092230210921802109239
:1026900017021092160290EEE92EF12CF7018081BC
:1026A0008B7F808388818160888342E060E080E066
:1026B0000E94430FF60180818E7F8083F801808124
:1026C00081608083808188608083F70180818E7F34
:1026D0008083888180618883CDB7DEB7E8E00C9481
:1026E0004B1E1F920F920FB60F9211242F933F9300
:1026F0004F935F936F937F938F939F93AF93BF930A
:10270000EF93FF938091E10082FF09C08091E20086
:1027100082FF05C08091E1008B7F8093E100809172
:10272000DA0080FF2AC08091D80080FF26C0809107
:10273000DA008E7F8093DA008091D90080FF18C084
:1027400080E189BD82E189BD09B400FEFDCF81E051
:10275000809323028091F20181110FC00E94F71231
:102760000E9416138091E20084608093E20005C00D
:1027700019BC109223021092F2018091E10080FFB7
:1027800017C08091E20080FF13C08091E2008E7F2D
:102790008093E2008091E20080618093E20080916A
:1027A000D80080628093D80019BC85E08093230212
:1027B0008091E10084FF30C08091E20084FF2CC052
:1027C00080E189BD82E189BD09B400FEFDCF809121
:1027D000D8008F7D8093D8008091E1008F7E809318
:1027E000E1008091E2008F7E8093E2008091E20020
:1027F00081608093E20080911802882311F084E0C8
:1028000007C08091E30087FD02C081E001C083E042
:1028100080932302809123028091E10083FF27C0EF
:102820008091E20083FF23C08091E100877F809345
:10283000E10082E080932302109218028091E1006F
:102840008E7F8093E1008091E2008E7F8093E20092
:102850008091E20080618093E20042E060E080E0ED
:102860000E94430F8091F00088608093F000FF91F8
:10287000EF91BF91AF919F918F917F916F915F91F8
:102880004F913F912F910F900FBE0F901F90189571
:102890002091E4003091E50095E64091EC00842F12
:1028A000817040FF23C08091E80080FD1DC08091B1
:1028B0002302882399F0853099F08091EB0085FD03
:1028C00011C04091E4005091E5002417350729F329
:1028D000915011F09A01E1CF84E0089582E00895CB
:1028E00083E0089581E0089580E008954091E80034
:1028F00042FFDDCF0895EF92FF920F931F93CF9386
:10290000DF937C018B010E944814811119C0E701FB
:1029100001151105A1F08091E80085FD0AC08091A4
:10292000E8008E778093E8000E944814882381F3A2
:1029300007C089918093F10001501109E9CF80E02F
:10294000CDB7DEB7E6E00C944D1ECF932091230265
:10295000243029F5C091E900CF703091EC00232F8D
:10296000217030FD20E8C22B23E02093E900209164
:10297000E80020FF11C040E050E060E270E00E94FB
:102980007B14882321F01092210210922202809160
:10299000E8008E778093E800CF70C093E900CF9174
:1029A0000895ACE5B0E0E7EDF4E10C942D1E85B799
:1029B000806885BF85B7806885BF84B7877F84BFFF
:1029C0000FB6F894A89580916000886180936000AC
:1029D000109260000FBE90E080E80FB6F8948093EC
:1029E0006100909361000FBE8EE099E090936B01BF
:1029F00080936A010E94F7120E9416138091E200F0
:102A000084608093E2007894809123028823A1F06F
:102A10001091E9001F709091EC00892F817090FD5A
:102A200080E8182B1092E9008091E80083FD0E9455
:102A3000E10F1F701093E90082E084BD93E095BD23
:102A40009AEF97BD80936E000E94800790E090936C
:102A50001801809317010E94BB080E940109EAE255
:102A6000F2E0A9E3B2E011921D9222E0E833F2070E
:102A7000D1F78EE090E00E948D1F80932402909306
:102A80002502FC010E961192E817F907E1F789EA91
:102A90008093800089E08093810024982C983F984F
:102AA0008AB18F7C8AB96E98479A8BB180638BB953
:102AB000769A8FE090E00E94D01E60932602709379
:102AC0002702809328029093290267703FEF639F4B
:102AD000B001112475956795759567957727709363
:102AE00089006093880070938B0060938A007093D4
:102AF0008D0060938C000E94F70780E090E00E94B8
:102B0000D61E883E9E4F11F00E94060B82E090E098
:102B10000E94C81E8093470284E090E00E94C81E75
:102B2000182F82E290E00E94C81E212F30E0382B3F
:102B300030937B0220937A0283E090E00E94C81ECB
:102B40000E94191C809138020E94A5038BE091E03D
:102B5000909372028093710288E1E82EF12C90E448
:102B6000D92E80912302853009F054C000E112E192
:102B700080912302853009F047C080912302843080
:102B800009F1109275020FB6F894A895E0926000D2
:102B90000FBED092600083B7817F846083BF83B70C
:102BA000816083BF7894889583B78E7F83BF0FB68B
:102BB000F894A895809160008861809360001092DD
:102BC00060000FBE80911702882391F20E94800757
:102BD00090E090931801809317010E94BB080E9417
:102BE0000109E9E3F2E0119282E0E734F807D9F74E
:102BF0000E94110EE9E3F2E08191811140C222E0CE
:102C0000E734F207C9F7B4CF1092F3010E943E1CDB
:102C10000E94AC190E94110E882359F08FB7F894C6
:102C2000409176025091770260917802709179021A
:102C30008FBFA8E4B2E0E9E3F2E000E010E0302F5B
:102C400021919D919227A1F180E0CC24C394492F3A
:102C50004C2151F164968FAF649765963FAF6597AD
:102C60002C2181E009F480E066968FAF66970E9480
:102C700023198160782F68969FAF8EAF689764960E
:102C80004FAD649765965FAD659766966FAD669735
:102C900068968FAD68970E94F202F801E85BFD4FDD
:102CA0008081C826C0822AC08F5FCC0C863079F61E
:102CB0000F5F1F4F0E30110509F0C1CF8FEF6996DE
:102CC0008FAF69976A968FAF6A976B961FAE6B97B7
:102CD0000E9423198160782F6D969FAF8EAF6D97FC
:102CE00069964FAD69976A965FAD6A976B966FADBF
:102CF0006B976D968FAD6D970E94F20285E0EAE6C4
:102D0000F2E0DE01119601900D928A95E1F71092A2
:102D10006B0210926C0210926D0210926E021A8178
:102D2000111104C08B81882309F452C0809168027C
:102D3000909169020E9414199C0190916402992358
:102D400009F4B5C12531310508F442C09F3F19F09F
:102D50009F5F90936402112361F00E94971A1116ED
:102D600014F09FEF01C091E0899F802D1124809382
:102D70006B021B81112361F00E94971A111614F047
:102D80009FEF01C091E0899F802D112480936C02F8
:102D900030916B023323E1F020916C022223C1F0C9
:102DA00045EB3403C0011124992319F090936B0271
:102DB00003C081E080936B0235EB2303C001112433
:102DC000992319F090936C0203C081E080936C0208
:102DD0001C81111104C08D81882309F452C0809197
:102DE0006602909167020E9414199C0190916302FF
:102DF000992309F460C12531310508F442C09F3F91
:102E000019F09F5F90936302112361F00E94771A7B
:102E1000111614F09FEF01C091E0899F802D1124BD
:102E200080936D021D81112361F00E94771A1116A3
:102E300014F09FEF01C091E0899F802D11248093B1
:102E40006E0230916D023323E1F020916E02222355
:102E5000C1F045EB3403C0011124992319F090937C
:102E60006D0203C081E080936D0235EB2303C00146
:102E70001124992319F090936E0203C081E080938E
:102E80006E0245E050E0BE016F5F7F4F8AE692E040
:102E90000E94AE20892BA9F480916B0281110FC092
:102EA00080916C0281110BC080916D02811107C06D
:102EB00081E090916E02911103C080E001C081E039
:102EC00080FD0E94D91985E0FE013196AAE6B2E0A4
:102ED00001900D928A95E1F70E94AC1990915602EB
:102EE00089138093560280912302843009F039CEF1
:102EF0008093E9008091E80082FF33CE8091E80062
:102F000085FF22C00E94481481111CC000E210E01D
:102F10005E0141E2A40EB11C08C08091F100F501F0
:102F200081935F010150110969F08091E80085FDEE
:102F3000F4CF8091E8008B778093E8000E944814DA
:102F4000882399F391E001C090E08091E8008B77AD
:102F50008093E800992309F404CE89A18130E9F136
:102F600058F1823021F0843009F47DC0FACD8BA174
:102F70009AA190935702809358028DA19CA190939F
:102F8000590280935A028FA19EA190935B02809375
:102F90005C0242E150E063E270E0CE018F5B9F4F44
:102FA0000E94B81E84E0898381E0809322028EEF24
:102FB0008A83109221020CC019828CE0EEE5F1E0C8
:102FC000DE01129601900D928A95E1F78EEF8D87C2
:102FD000CE0101960E94A514C4CD0DE512E00E9419
:102FE000B919F801819391938F01F2E003361F071D
:102FF000B1F781E0898390915D029A8390915E029E
:103000009B8390915F029C83909160029D8390913D
:1030100061029E83909162029F839EEF98878093C6
:103020002102CE0101960E94A51442E150E063E224
:1030300070E0CE0101960E94B81EFE01319682E139
:1030400083301CF09189928B01C0128A8150319794
:103050008F3FB1F742E150E063E270E0CE010196AC
:103060000E94DC1E7ECD80912202882309F479CD56
:1030700080E00E94D61B8AA10E940D1C72CD09BD62
:1030800019BD09B400FEFDCF8091D8008F7D8093DB
:10309000D8008091E00082608093E0008091E000A1
:1030A00081FDFCCF1092F3010E943E1C61CD232BC9
:1030B00009F04ECE8DCE2139314008F0A2CEE1CEBE
:1030C0008091F501089522E02093E9002FEF3091DF
:1030D000E800215035FD06C035ED3A95F1F70000C6
:1030E0002111F5CF2091E80025FF0BC040E050E012
:1030F00065E070E00E947B148091E8008E778093F9
:10310000E8000895CF93DF9320910A01222339F03C
:1031100020917A0227FF03C060E225E002C068E048
:1031200021E02093E9002FEF3091E800215035FD98
:1031300006C035ED3A95F1F700002111F5CF209149
:10314000E80025FF1DC0EC0180910A01811105C036
:1031500040E050E068E070E003C070E040E050E024
:10316000CE010E947B148091E8008E778093E80066
:1031700080E2FE01A6EFB1E001900D928A95E1F7A1
:10318000DF91CF91089580937C0270937E026093CB
:103190007D0280912302843001F585E08093E9006F
:1031A0008FEF9091E800815095FD06C095ED9A95BE
:1031B000F1F700008111F5CF8091E80085FF0DC087
:1031C00040E050E063E070E08CE792E00E947B1406
:1031D0008091E8008E778093E800089578941F929C
:1031E0000F920FB60F9211248F939F93AF93BF93BB
:1031F0008091760290917702A0917802B091790245
:103200000196A11DB11D8093760290937702A09341
:103210007802B0937902BF91AF919F918F910F90F7
:103220000FBE0F901F9018959C014FB7F894809196
:10323000760290917702A0917802B09179024FBF07
:10324000821B930B08952FB7F8948091760290918A
:103250007702A0917802B09179022FBF08951F9252
:103260000F920FB60F9211248F939F93AF93BF933A
:1032700080917502811113C080917602909177023E
:10328000A0917802B09179024196A11DB11D809361
:10329000760290937702A0937802B0937902BF915F
:1032A000AF919F918F910F900FBE0F901F90189527
:1032B00020910A012223C9F020917A0227FF15C02C
:1032C000262F2695269526952E31C8F4FC01E20F6F
:1032D000F11D677081E090E001C0880F6A95EAF700
:1032E00080959281892382830895FC01069622812C
:1032F000621301C012823196E817F907C1F70895E9
:1033000020917302309174022817390771F090935D
:10331000740280937302E0917102F091720230970F
:1033200021F00084F185E02D0995089520916F0228
:10333000309170022817390771F0909370028093D2
:103340006F02E0917102F0917202309721F00680D5
:10335000F781E02D09950895E0917102F0917202D4
:10336000309729F00190F081E02D0995089580E0D3
:103370000895CF93DF930E94A81E66E070E00E943C
:10338000731FD82F0E94A81E6EE070E00E94731F6A
:10339000C82F6D2F782F80E00E9453090497C5979E
:1033A00018F48D2F9C2F02C00E94B919DF91CF9184
:1033B00008950E94231920916B02211104C02091CD
:1033C0006C02222321F0909369028093680220917D
:1033D0006D02211104C020916E02222321F09093EE
:1033E000670280936602E0917102F0917202309759
:1033F00031F00480F581E02D8AE692E00995089588
:103400008D3E39F490916C0297FF35C010926C029A
:1034100059C08E3E29F490916C021916BCF32BC052
:1034200090916B028F3E29F497FF25C010926B029A
:1034300049C0803F19F41916CCF31DC090916D025C
:10344000893F29F41916BCF410926D023BC08A3FE3
:1034500019F497FF10C0F8CF8B3F39F490916E02AA
:1034600097FF09C010926E022DC08C3F21F49091FD
:103470006E021916BCF39FE0980F983080F421E09B
:1034800030E0A90102C0440F551F9A95E2F7CA0126
:10349000809590916A02892380936A0213C08D3FC0
:1034A00021F4809165028E7F0BC08E3F21F48091C4
:1034B00065028D7F05C08F3F29F4809165028B7F67
:1034C0008093650280916B02811106C080916C022D
:1034D000811102C01092640280916D02811106C0B8
:1034E00080916E02811102C0109263020895809152
:1034F000650280FD18C081FD14C082FD16C0809158
:103500006302882381F08C3380F427E0829FC0011E
:1035100011246CE370E00E94731F862F672B19F053
:1035200005C083E0089581E0089587E008958091C3
:10353000650280FD17C081FD17C082FD19C0809112
:103540006402882399F08C3398F428E3829FC001A9
:1035500011246CE370E00E94731F862F672B49F4DF
:1035600081E008958EE008958CE1089588E0089543
:1035700088E308958D3E21F40E94971A819504C036
:103580008E3E29F40E94971A80936C0208958F3E14
:1035900021F40E94971A819504C0803F29F40E946B
:1035A000971A80936B020895893F19F40E94771A45
:1035B00005C08A3F31F40E94771A819580936D028D
:1035C00008958B3F21F40E94771A819504C08C3FA7
:1035D00029F40E94771A80936E0208959FE0980F55
:1035E000983078F421E030E0A90102C0440F551F63
:1035F0009A95E2F7CA0190916A02892B80936A0238
:1036000008958D3F21F48091650281600BC08E3F4B
:1036100021F480916502826005C08F3F29F480917A
:103620006502846080936502089580E090E00E94C6
:10363000961980E090E00E9480191092E7010E94A4
:10364000890BEAE6F2E085E0DF011D928A95E9F751
:103650001092640210926302109265020E94D919BE
:103660000895CF92DF92FF920F931F93CF93DF9332
:103670006C01009138028091E901082BC7E0D0E08D
:1036800010E0C8010C2E02C0959587950A94E2F7C8
:1036900080FD04C02197A8F7F12C09C0FC2EB601CB
:1036A0008C2F0E9453090E946C09019799F38F2D6A
:1036B000DF91CF911F910F91FF90DF90CF900895F0
:1036C000CF93DF93EC010E94311BBE010E9453098E
:1036D0000E946C09DF91CF910895292F9E3078F5D3
:1036E000863068F590E036E0239F800D911D11240F
:1036F000682F677023E0969587952A95E1F7FC017E
:10370000EE0FFF1FE80FF91FE158FD4F40E050E0BA
:1037100080E0219130E0062E02C0369527950A946C
:10372000E2F721703327042E01C0220F0A94EAF732
:10373000822B4F5F5F4F4330510559F7089580E06A
:103740000895292F9E3088F5863078F590E036E090
:10375000239F800D911D1124282F277051E001C057
:10376000550F2A95EAF723E0969587952A95E1F774
:10377000FC01EE0FFF1FE80FF91FE158FD4F20E09D
:1037800030E070E04081CB01022E02C09695879513
:103790000A94E2F781708195842785238427819399
:1037A0002F5F3F4F2330310569F70895A0E2B0E065
:1037B000ECEDFBE10C94341E0E94A503182F8091C0
:1037C00022028823A9F02FEF80E792E02150804069
:1037D0009040E1F700C0000085E08983812F0E94BE
:1037E00091038A838EEF8B83CE0101960E94A514EC
:1037F000109338020E94151BA096E3E00C94501E13
:1038000021E030E001C0220F8A95EAF720958091EF
:10381000380282230E94D61B089521E030E001C0C7
:10382000220F8A95EAF780913802822B0E94D61BDC
:1038300008958093E9010E94151B0895FC01808181
:1038400091810E94601B92959F70963079F010F4E0
:10385000925001C09A50923068F4803F69F018F499
:10386000883E40F409C0843F29F406C0883E20F019
:10387000813F11F080E0089581E0089580910A0170
:10388000882331F080917A0287FF02C08EE101C067
:1038900086E0E0E7F1E0DF011D928A95E9F70E94FA
:1038A000151B0895882321F00E94820B0E94890B2A
:1038B0000895882339F09091F301892B8093F301C7
:1038C0000E94890B0895882391F19CEF980F913AFB
:1038D00030F4682F8EE691E00E9458190DC090E2F6
:1038E000980F983060F4877091E001C0990F8A9525
:1038F000EAF7892F0E94820B0E94890B08959BE5AD
:10390000980F933028F480E090E00E949619089573
:1039100098E5980F973128F480E090E00E94801994
:1039200008958D3E20F00E94001A0E94D919089532
:10393000CF93882309F49FC0C82F8CEF8C0F813A56
:1039400008F05BC080910A018823E1F080917A023F
:1039500087FF18C0EC2FE695E695E695F0E0E25972
:10396000FE4F8281282F30E04C2F477081E090E09D
:1039700002C0880F991F4A95E2F782239323892B6F
:1039800059F411C0E0E7F1E08191C81729F081E016
:10399000E637F807C9F707C06C2F8EE691E00E9462
:1039A00058190E94890B80910A018823B1F08091F7
:1039B0007A0287FF12C0EC2FE695E695E695F0E0D7
:1039C000E259FE4FC77081E090E001C0880FCA95B0
:1039D000EAF79281892B828320C0A0E7B1E0EFEF64
:1039E00080E09D91C917C9F0EF3F19F4911101C012
:1039F000E82F8F5F8630A9F735C080E28C0F8830C2
:103A000078F4C77081E090E001C0880FCA95EAF7AA
:103A10009091F301892B8093F3010E94890B2BC0B5
:103A2000EBE5EC0FE33040F4F0E0E75EFE4F808121
:103A300090E00E9496191FC0E8E5EC0FE73150F4C2
:103A4000F0E0EE0FFF1FE45EFE4F808191810E9447
:103A5000801911C0CD3E78F08C2F0E94BA1A0E94B6
:103A6000D91909C0EF3FC9F20E2E000CFF0BE25925
:103A7000FE4FC283D2CFCF9108951092B9008CE04F
:103A80008093B8000895A0E0B0E0E9E4FDE10C9473
:103A90002C1EB82EEB010E9423196C01C431D105F4
:103AA00058F0CF3F8FEFD80759F0CE0164E170E0B6
:103AB0000E94111E7B0107C0EE24E394F12C03C089
:103AC00025E0E22EF12C84E8A82E94EA992E10929B
:103AD000BC009092BC000E9423198C018091BC0014
:103AE00087FD08C00E942319801B910B8E159F052E
:103AF000A8F32AC08091B900887F883041F0809176
:103B0000B900887F803119F00FEF1FEF1FC0B0920E
:103B1000BB00A092BC000E9423198C018091BC00C4
:103B200087FD08C00E942319801B910B8E159F05ED
:103B3000A8F30AC08091B900887F883111F08034E1
:103B400019F700E010E00EC00EEF1FEFCF3F8FEF30
:103B5000D80709F4BCCFC6010E9414198C179D0721
:103B600008F4B5CFC801CDB7DEB7EBE00C94481E22
:103B70000F931F93CF93DF93EB018093BB0084E8F7
:103B80008093BC000E9423198C018091BC0087FDAA
:103B90000EC0CF3F8FEFD807C1F30E942319801BBF
:103BA000910B8C179D0788F38EEF9FEF0CC020912F
:103BB000B900287F81E090E0283211F480E090E0A5
:103BC000919581959109DF91CF911F910F91089562
:103BD0000F931F93CF93DF93EC0184E88093BC0095
:103BE0000E9423198C018091BC0087FD0EC0CF3F3D
:103BF0008FEFD807C1F30E942319801B910B8C17FC
:103C00009D0788F38EEF9FEF03C08091BB0090E08B
:103C1000DF91CF911F910F91089584E98093BC00AB
:103C20000895AA1BBB1B51E107C0AA1FBB1FA61703
:103C3000B70710F0A61BB70B881F991F5A95A9F755
:103C400080959095BC01CD0108952F923F924F929F
:103C50005F926F927F928F929F92AF92BF92CF921C
:103C6000DF92EF92FF920F931F93CF93DF93CDB725
:103C7000DEB7CA1BDB0B0FB6F894DEBF0FBECDBF9D
:103C800009942A88398848885F846E847D848C846E
:103C90009B84AA84B984C884DF80EE80FD800C8177
:103CA0001B81AA81B981CE0FD11D0FB6F894DEBF5A
:103CB0000FBECDBFED0108958F929F92AF92BF923C
:103CC000CF92DF92EF92FF92CF93DF93EC01688166
:103CD00079818A819B81611571058105910521F4A6
:103CE00064E279ED8BE597E02DE133EF41E050E0C0
:103CF0000E94101F49015A019B01AC01A7EAB1E4DF
:103D00000E942F1F6B017C01ACEEB4EFA501940162
:103D10000E943D1FDC01CB018C0D9D1DAE1DBF1D02
:103D2000B7FF03C00197A109B04888839983AA838C
:103D3000BB839F77DF91CF91FF90EF90DF90CF9083
:103D4000BF90AF909F908F9008950E945C1E089541
:103D500080E091E00E945C1E0895A0E0B0E08093B6
:103D6000000190930101A0930201B0930301089513
:103D7000DC01CB01FC01F999FECF06C0F2BDE1BD2B
:103D8000F89A319600B40D9241505040B8F708951A
:103D9000F999FECF92BD81BDF89A992780B5089513
:103DA000A6E1B0E044E050E00C94BA1EA8E1B0E017
:103DB00042E050E00C94BA1EDC01A40FB51F415044
:103DC000504048F0CB01840F951F2E910E94ED1EAC
:103DD00041505040D0F70895262FF999FECF92BD5B
:103DE00081BDF89A019700B4021639F01FBA20BDC0
:103DF0000FB6F894FA9AF99A0FBE08950396272FF2
:103E00000E94ED1E0E94EC1E252F0E94ED1E242F05
:103E10000C94ED1E0196272F0E94ED1E0C94EC1EB3
:103E2000052E97FB1EF400940E94271F57FD07D014
:103E30000E94421F07FC03D04EF40C94271F50959C
:103E40004095309521953F4F4F4F5F4F0895909586
:103E50008095709561957F4F8F4F9F4F08950E9479
:103E6000641FA59F900DB49F900DA49F800D911D80
:103E700011240895B7FF0C942F1F0E942F1F821B3F
:103E8000930B0895A1E21A2EAA1BBB1BFD010DC0C6
:103E9000AA1FBB1FEE1FFF1FA217B307E407F507FA
:103EA00020F0A21BB30BE40BF50B661F771F881FD6
:103EB000991F1A9469F760957095809590959B016C
:103EC000AC01BD01CF010895A29FB001B39FC00115
:103ED000A39F700D811D1124911DB29F700D811D36
:103EE0001124911D089597FB072E16F4009407D016
:103EF00077FD09D00E94111E07FC05D03EF4909575
:103F000081959F4F0895709561957F4F0895EE0FAD
:103F1000FF1F0590F491E02D09940F931F93CF9309
:103F2000DF938230910510F482E090E0E091A202EC
:103F3000F091A30220E030E0A0E0B0E0309719F16A
:103F4000408151810281138148175907C8F08417B5
:103F5000950769F4109731F012960C931297139607
:103F60001C9327C00093A2021093A30222C0211524
:103F7000310519F04217530718F49A01BD01EF01FA
:103F8000DF01F801DBCF21153105F9F0281B390BD2
:103F90002430310580F48A819B816115710521F0FF
:103FA000FB019383828304C09093A3028093A202B7
:103FB000FE01329644C0FE01E20FF31F81939193FC
:103FC00022503109398328833AC02091A0023091D0
:103FD000A102232B41F42091060130910701309377
:103FE000A1022093A0022091040130910501211526
:103FF000310541F42DB73EB74091080150910901B8
:10400000241B350BE091A002F091A102E217F30707
:10401000A0F42E1B3F0B2817390778F0AC014E5F38
:104020005F4F2417350748F04E0F5F1F5093A102D2
:104030004093A0028193919302C0E0E0F0E0CF01B1
:10404000DF91CF911F910F910895CF93DF93009748
:1040500009F481C0FC01329713821282A091A2025E
:10406000B091A302109781F420813181820F931FB8
:104070002091A0023091A1022817390751F5F09341
:10408000A102E093A00267C0ED0120E030E0CE176E
:10409000DF0740F44A815B819E0141155105F1F033
:1040A000EA01F5CFD383C28340815181840F951FEC
:1040B000C817D90759F488819981840F951F0296F2
:1040C000918380838A819B8193838283211531052B
:1040D00029F4F093A302E093A2023DC0E901FB831F
:1040E000EA8349915991C40FD51FEC17FD0761F47C
:1040F00080819181840F951F0296E90199838883BD
:10410000828193819B838A83E0E0F0E012968D9117
:104110009C911397009719F0FD01DC01F7CF8D9169
:104120009C9111979D012E5F3F4F820F931F20910D
:10413000A0023091A1022817390769F4309729F4B9
:104140001092A3021092A20202C013821282B093B4
:10415000A102A093A002DF91CF910895FB01DC01A1
:1041600004C08D910190801921F441505040C8F74E
:0A417000881B990B0895F894FFCF07
:10417A00010000000000A4022000016018821863F8
:10418A0018DC0FD70FD60F2000818283E200E900E6
:10419A00EA00B500B600B700CD008301CC008A0161
:1041AA0092019401210223022402250226022702F7
:1041BA002A02B300B4006F0070004022476D6A04FF
:1041CA00480401049403BC04D504F5040E056D618A
:0A41DA005152782F4D624A396200FD
:00000001FF
