:100000000C94BB020C94D8020C94D8020C94D80225
:100010000C94D8020C94D8020C94D8020C94D802F8
:100020000C94D8020C94D8020C9452140C9494138F
:100030000C941C1A0C94D8020C94D8020C94D8027C
:100040000C94D8020C94D8020C94D8020C94D802C8
:100050000C94D8020C94DB190C94D8020C94D8029E
:100060000C94D8020C94D8020C94D8020C94D802A8
:100070000C94D8020C94D8020C94D8020C94D80298
:100080000C94D8020C94D8020C94D8020C94D80288
:100090000C94D8020C94D8020C94D8020C94D80278
:1000A0000C94D8020C94D8020C94D802FB030004E0
:1000B0000A04FE03030408040604BE05BE05F00599
:1000C000F0055A0676060B080B0881065F077007D5
:1000D00070077209750978097B097E09810984090D
:1000E000A711CE117C13CE117C131A123D127C1372
:1000F0003213421335002B00E000E10002510000F2
:100100001E00140004001D006400FA001F001A0005
:1001100016001B0039002900200008000700060017
:10012000E3002C002100150009001900E200F9008D
:10013000220017000A0005000000FB0023002A002F
:10014000000028000000FC002E002A00000028000B
:100150000000490023001C000B00110000004908AA
:10016000240018000D001000E600120825000C0005
:100170000E00360065000151260012000F00370006
:10018000B5004C0027001300330038003000115038
:100190002D002F003461E500310000000100010056
:1001A00001000100010000003A00F900FA0001001E
:1001B000010046003B00F100EF00FB0001000100E0
:1001C0003C00ED00EE004700010001003D00F200A0
:1001D000F000FC00010046043E00F300F400F500CE
:1001E0000000B200A800A9000000AA00000048001A
:1001F0003E00010000000100000001003F0001007E
:10020000010001000000010040004A005000B6005B
:10021000F1000100410052005100B0000100010056
:1002200042004D004F00B7000100010043004B00A9
:100230004E000100010012504400450068006900B2
:100240006A0000000100010001000100010000003F
:100250003A00010004013D044C0201003B00010092
:1002600001000100490101003C00460001000100BD
:10027000490201003D00010001001D032F010100A2
:100280003E00010001001B0100000100A800A900C0
:100290000000AA00000001000100010000000100B0
:1002A0000000010001000100010001000000010048
:1002B0000100010001000100010001000100010036
:1002C00001000100010003510100010001000100D3
:1002D00001000100010001000100010001001350B4
:1002E0000100010001000100010000003B000100CD
:1002F00001000100370000001E00010001000E0097
:100300000B002F001F000F0001000100330001004F
:100310002000010001000C0012000100210001007A
:10032000010018000100300022000D00340001001F
:1003300000002400230036000000380000002700E1
:1003400043002A0000002800000001000100010015
:100350000100010000000100010001000100010096
:100360000100010001000100010001000100010085
:10037000AA0001000100010001000100A900010024
:100380000100010001001050A8000100010001005F
:100390000100000005010980A101850319012AB7A8
:1003A00000150126B700950175108100C0050C09E4
:1003B00001A101850419012AA002150126A00295B8
:1003C0000175108100C005010906A1018506050718
:1003D00019E029E715002501950875018102050737
:1003E000190029EF1500250195F075018102050816
:1003F0001901290595057501910295017503910172
:10040000C005010902A1010901A10005091901297D
:1004100008150025019508750181020501093009BB
:10042000311581257F9502750881060938158125CA
:100430007F950175088106050C0A38021581257F14
:10044000950175088106C0C00660FF0961A1010918
:1004500062150026FF0095207508810209631500CA
:1004600026FF00952075089102C005010906A1012B
:10047000050719E029E71500250195087501810296
:100480009501750881010507190029FF150026FF50
:10049000009506750881000508190129059505755F
:1004A000019102950175039101C0090274000401D4
:1004B00000A0FA0904000001030101000921110153
:1004C0000001224000070581030800010904010022
:1004D000020300000009211101000122220007058A
:1004E0008303200001070504032000010904020022
:1004F0000103010200092111010001224700070543
:10050000820308000109040300010300000009211F
:1005100011010001226D0007058503200001120171
:100520000002000000089732744901000102000136
:1005300016034500720067006F0044006F007800EA
:10054000200045005A00000028035A0053004100D3
:10055000200054006500630068006E006F006C00AE
:100560006F006700790020004C006100620073009A
:1005700000000403090411241FBECFEFDAE0DEBF40
:10058000CDBF11E0A0E0B1E0ECE0F4E402C00590E2
:100590000D92AA36B107D9F722E0AAE6B1E001C070
:1005A0001D92A03CB207E1F70E94B2150C94042200
:1005B0000C9400001092F6010E94871D2FEF84E337
:1005C0009CE0215080409040E1F700C000009AE09C
:1005D00088E10FB6F894A895809360000FBE9093C1
:1005E0006000FFCFA7E1B0E0E8EFF2E00C947D1FE0
:1005F0004B8B5C8B6D8B7E8B8F8B61111092E70127
:1006000086E09E01235F3F4FD901E82F1D92EA95B6
:10061000E9F795E0FE017396D90101900D929A9544
:10062000E1F79C894E895F897B897D879E876F87EB
:10063000598B488BF901DE01179601900D928A952E
:10064000E1F7CE0107960E945E0D81113EC086E063
:10065000FE013796DE01119601900D928A95E1F721
:10066000FF81E8856A857B856115710531F0EF3F73
:1006700031F481E0FF3F19F403C081E001C080E064
:1006800080FD23C02091940130E0C901019687705C
:1006900099274091C50150E08417950779F1F983B6
:1006A000EA837D836C8396E0929FD001939FB00D87
:1006B0001124AB56BE4FFE01319601900D929A95D2
:1006C000E1F7809394010E94EB0C16E08091C50144
:1006D00090919401891709F1189FC00111248B563C
:1006E0009E4F0E945E0D8823C1F08091C50190E06D
:1006F0000196877099278093C501E8CF1092F60183
:100700000E94871D109294011092C501EEE8F1E05D
:1007100086E0DF011D928A95E9F76796E3E00C9485
:10072000991FCF92DF92EF92FF926C01EE24FF248B
:10073000C114D104E104F10421F0C701B60120E1A4
:1007400001C020E0C72ED82EE92EFF24C114D10409
:10075000E104F10419F0285FC701B6016B017C01C7
:1007600054E0F694E794D794C7945A95D1F7C114FE
:10077000D104E104F10419F02C5FC701B6016B014B
:100780007C0142E0F694E794D794C7944A95D1F758
:10079000C114D104E104F10419F02E5FC701B601C0
:1007A000DC01CB01B695A79597958795892B8A2B68
:1007B0008B2B09F02F5F822FFF90EF90DF90CF906F
:1007C0000895CF92DF92EF92FF926B017C010E941D
:1007D000910356985E9825982D9826982E982798DC
:1007E0002F9890E0FC013197E730F105A8F4EA5A20
:1007F000FF4F0C94D020259A2D9A0EC0259A2D9A41
:10080000269A2E9A09C0259A2D9A04C0259A2D9AC7
:10081000269A2E9A279A2F9AC701B601FF90EF9039
:10082000DF90CF900895A5E2B0E0E9E1F4E00C9408
:10083000741FFC018081918123813481232B31F04D
:100840009F3F31F491E08F3F19F403C091E001C064
:1008500090E090FD1EC47F0185E0DE01919601903D
:100860000D928A95E1F7D70112962C9189A19AA150
:10087000222349F00E941D1C182F682F89A19AA1DC
:100880000E949B1C03C00E94661C182F69A17AA1BC
:10089000812F0E94200A8C0190912402F70182810D
:1008A000992309F44DC08111E4C3E0916D01E33057
:1008B000A0F481E08E0F80936D01F0E0EE0FFF1F3A
:1008C000E35AFD4FD7018D919C919183808382E003
:1008D0008983CE0101960E948615BFEFE3EDF0E318
:1008E000B150E040F040E1F700C0000080916D01A0
:1008F000833009F0BEC310926D01E3E6F2E0ADE58E
:10090000B2E089E692E0318111962C911197321371
:100910002EC030812C9132132AC0329612968E1737
:100920009F0789F784E0898381E0809325028EEF19
:100930008A8310922402CE0101960E94861599C3E3
:10094000909125029923C1F0811102C087E001C076
:1009500086E08983D7018C918A8311968C918B8351
:100960008EEF8C83CE0101960E94861505C083E030
:10097000898310922502DBCF0F3AFDE51F0709F0AE
:1009800040C0F70182818823E1F19091290281E042
:10099000890F8770987F853020F4892B80932902F6
:1009A00002C090932902809129028770FFEF8F9FE8
:1009B000C0011124959587959595879599279093D2
:1009C00089008093880090938B0080938A00909395
:1009D0008D0080938C004091290250912A026091F1
:1009E0002B0270912C028FE090E00E9447206091D2
:1009F0003B0270913C0280913D0290913E020E9428
:100A0000E103D70112968C91882309F46BC00C3551
:100A10002DE5120709F461C058F401158CE518079B
:100A200099F00F3D1C4509F05DC00E94D30B4BC0EF
:100A30000E35ADE51A0709F448C008F450C0093A6C
:100A40001D4509F440C04EC01092F6010E94871D5A
:100A5000FFEF04E31CE0F15000401040E1F700C05C
:100A60000000F89481E08093E00080E28093D80059
:100A70001092C9008FE19EE40197F1F700C00000D9
:100A80001DBA109268001CBC10BE1FBA10927A00EA
:100A900010926E0010926F0010927100109272000E
:100AA0001092C9001092BC0014B817B81AB81DB83B
:100AB00010BA1092BC0015B818B81BB81EB811BAFD
:100AC0000C94003FD6C20E94DA028091810282FB20
:100AD000882780F991E0892703C081E001C080E088
:100AE0000E94CF0CF701828100811181882349F097
:100AF000C8010E941D1CD82E682FC8010E949B1C93
:100B000004C0C8010E94661CD82EB8018D2D0E9419
:100B1000200A0E94390A8C01982EF701D280A58004
:100B2000A2949FE0A9228091C6018770B9F0DD20D0
:100B3000A9F0812F807F803421F080E2800F8830FF
:100B400068F08091810282FF09C082E00E94B20CAD
:100B50008091C6018770CC24C3948111C12CB12E21
:100B6000B2948FE0B8228B2D90E08C30910508F084
:100B700052C2FC01E35AFF4F0C94D020812F807F9A
:100B80001F70882311F01295107FDD20B9F011231A
:100B900009F42EC280E2800F883010F0911006C058
:100BA0008091F601182B1093F60105C08091E701A2
:100BB000182B1093E7010E945D0C1AC2802F0E942F
:100BC000AC1D112309F427C2005E083078F199208A
:100BD00069F110958091E70118231093E70129C06E
:100BE000812F807F1F70803211F01295107F992025
:100BF00021F0F1E09F16D9F147C08091810282FD7A
:100C00001BC0DD2069F0112339F08091F601182B0B
:100C10001093F6010E945D0C80E00E94E11DFBC173
:100C200080E00E94AC1D112309F4F5C1812F0E94C0
:100C3000560C0E945D0CEFC1DD2081F08091E8012F
:100C4000AA2051F001E0A01207C0182B181709F4D0
:100C5000E2C11093E801DFC1812B10C0AA2021F06E
:100C600021E0A21609F4D7C10E94500C1FC0DD205C
:100C700041F031E03A1508F4CEC1812F0E94A21D47
:100C8000CAC1A110C8C112C0DD2019F0AA20A9F361
:100C9000AFC1AA2059F0093309F0BAC18FEF97EE1E
:100CA000A3E081509040A040E1F7B0C1812F0E94A5
:100CB0009B1DB1C1812F86958695837019F0813077
:100CC00059F0A9C1DD2019F0C801937002C080E07D
:100CD00090E00E94831AA5C1DD2019F0C80193702D
:100CE00002C080E090E00E946D1A9BC1802FDD2041
:100CF00019F00E94A61B02C00E94EC1A0E94C51A9D
:100D000090C1812F837009F069C0D11088C1902FE4
:100D1000929596959770990F990F802F8F70882EC6
:100D2000912CA12CB12C092E04C0880C991CAA1C52
:100D3000BB1C0A94D2F704FF12C04FE050E060E001
:100D400070E004C0440F551F661F771F9A95D2F7B5
:100D5000DB01CA0180959095A095B09503C080E015
:100D600090E0DC0116951695412F4370423019F141
:100D7000C8F40091E9011091EA012091EB01309152
:100D8000EC01413059F088299929AA29BB29BC01D5
:100D9000CD0160237123822393230AC0802A912AE4
:100DA000A22AB32ABC01CD01682979298A299B2965
:100DB0000E945C1D34C188299929AA29BB29009168
:100DC000E9011091EA012091EB013091EC01BC01A5
:100DD000CD016027712782279327EACFDD2019F004
:100DE000812F817001C08695882309F418C1902F46
:100DF000929596959770990F990F802F8F70882EE6
:100E0000912CA12CB12C092E04C0880C991CAA1C71
:100E1000BB1C0A94D2F704FF12C04FE050E060E020
:100E200070E004C0440F551F661F771F9A95D2F7D4
:100E3000DB01CA0180959095A095B09503C080E034
:100E400090E0DC0116951695412F43704230D9F0A1
:100E500068F500913B0210913C0220913D023091D7
:100E60003E02413059F088299929AA29BB29BC01A1
:100E7000CD0160237123822393231EC0802A912AEF
:100E8000A22AB32A13C088299929AA29BB2900912B
:100E90003B0210913C0220913D0230913E02BC0188
:100EA000CD01602771278227932706C0BC01CD01A1
:100EB000682979298A299B290E94D11CB0C01F70FA
:100EC000DD2039F0812F0E943A1D802F0E94A21D43
:100ED000A6C0802F0E949B1D812F0E94141D9FC0C1
:100EE000802FB2EF9B1609F441C0B91538F0E0EF3E
:100EF0009E1659F0F1EF9F16A1F175C023EF9216DF
:100F0000E1F134EF931649F16EC0DD2009F1A11033
:100F100082C01F7181E090E0A0E0B0E0AC01BD01B3
:100F200004C0440F551F661F771F1A95D2F7809192
:100F30003B0290913C02A0913D02B0913E028A0199
:100F40009B01082719272A273B27C901B80129C077
:100F500021E02A1508F45FC0DCCF8091810282FD78
:100F600023C0DD2029F0812F8F7130C0DD20D9F31F
:100F7000812F8F710E94141D4EC0DD2079F01F71EA
:100F800081E090E0A0E0B0E0BC01CD0104C0660FBC
:100F9000771F881F991F1A95D2F703C060E070E091
:100FA000CB010E94D11C37C0DD2099F01F71812F29
:100FB0000E943A1D8091810282FF07C038E0139F92
:100FC000C001112483608093C601812F0E943A1DC5
:100FD00022C081E00E94B20C81E08A15E0F482E038
:100FE0000E94B20C18C0DD2029F0AA2009F4BBCF62
:100FF000802F13CEAA2009F4BBCF893349F49FEF89
:10100000A7EEB3E09150A040B040E1F700C000006F
:10101000802F0E94AC1D88EF8B0D843010F40E944D
:10102000991ACC20A9F08091C60180FD11C0F7016A
:1010300012828595859585950E943A1DC7010E946B
:1010400013048091C6018595859585950E94141D90
:1010500085E0F701DE01119601900D928A95E1F786
:1010600009811A81C8010E94661CB8010E94200AE9
:1010700010C08091C601877061F0D70112968C91E3
:10108000882339F08091810282FF03C082E00E94B0
:10109000B20CA596ECE00C94901F80E290E0909347
:1010A00018018093170180916C0181110EC00E947C
:1010B000861E81E080936C012FEF83ED90E3215039
:1010C00080409040E1F700C0000064E670E080E4FA
:1010D0000E948C1E9093180180931701892B09F0B0
:1010E0004EC064E670E080E00E94011F90931801FA
:1010F00080931701892B09F042C064E670E080E01C
:101100000E94011F9093180180931701892BB9F554
:1011100064E670E08FE30E94011F909318018093B2
:101120001701892B61F50E94561F64E670E080E488
:101130000E948C1E9093180180931701892BF9F45B
:1011400064E670E08CE00E94011F90931801809388
:101150001701892BA1F464E670E080E00E94011F72
:101160009093180180931701892B49F464E670E08D
:101170008FE30E94011F90931801809317010E9432
:10118000561F809117010895CF93DF9356985E986C
:1011900025982D9826982E9827982F98C8E8D0E063
:1011A0008FEF90E099838883AAE8B0E011969C9332
:1011B0008E93ECE8F0E091838083259A2D9A2FEFAF
:1011C00080E792E0215080409040E1F700C00000AD
:1011D000269A2E9A2FEF80E792E02150804090408F
:1011E000E1F700C00000279A2F9A2FEF80E792E0E6
:1011F000215080409040E1F700C0000025982D98D4
:101200002FEF80E792E0215080409040E1F700C04E
:10121000000026982E982FEF80E792E02150804022
:101220009040E1F700C0000027982F988091290294
:1012300087702FEF829FC001112495958795959512
:10124000879599279983888311969C938E93918390
:10125000808356985E9825982D9826982E982798E2
:101260002F98DF91CF910895CF93E82F873080F5A5
:101270008091170190911801892B09F047C0CE2F5A
:1012800064E670E080E40E948C1E909318018093C5
:101290001701892BD1F464E670E082E10E94011FFE
:1012A0009093180180931701892B79F481E090E0E5
:1012B00001C0880FCA95EAF764E670E080950E9445
:1012C000011F90931801809317010E94561F1EC0A2
:1012D00090E0FC013797E730F105C0F4E759FF4F84
:1012E0000C94D020209A289811C0219A29980EC0D9
:1012F000229A2A980BC0239A2B9808C0529A5A987F
:1013000005C0539A5B9802C03E9A4698CF910895C3
:10131000209828982198299822982A9823982B98E1
:1013200052985A9853985B983E9846980895CF9350
:10133000873040F58091170190911801892B59F55C
:1013400064E670E081E40E948C1E90931801809303
:101350001701892B11F0C0E011C084E690E00E94D3
:10136000311F97FF05C09093180180931701F3CFA9
:10137000C82FC09510921801109217010E94561F95
:101380008C2F0AC09FB18FB1807F86958695937010
:10139000892B809501C080E0CF9108958098889A2C
:1013A0008198899A84988C9A85988D9A86988E9A35
:1013B00087988F9A089580E008959091800292FF17
:1013C0000DC0282F2871283019F4877F846006C04B
:1013D000282F2471243011F48B7F886093FF0DC077
:1013E000282F2871283119F4877E846106C0282FA0
:1013F0002471243111F48B7E88612091810220FFB9
:101400000DC0382F3871383019F4877F816006C0DD
:10141000382F3171313011F48E7F886021FF0DC07B
:10142000282F2871283119F4877E816106C0282F62
:101430002171213111F48E7E886194FD877E08959B
:101440007E30A0F4663090F494E5899FF001112479
:1014500086E0789FE00DF11D1124E60FF11DEE0FDF
:10146000FF1FEC50FF4F85919491089580E090E02C
:101470000895CF93DF938238910569F1B0F48133F9
:10148000910509F46FC048F48932910509F465C0EB
:101490008A32910509F46BC08AC08533910509F43D
:1014A00057C089339105B9F082C0833E910571F12F
:1014B00038F4803E9105B1F0823E910511F177C07C
:1014C000863E9105B9F1873E9105C9F1843E9105AB
:1014D00009F06DC024C02091800220FD53C021FD81
:1014E00051C065C08091800280FD46C0809181021C
:1014F00080FF48C08091800284FD50C183EE90E05F
:101500004FC18091800282FF3AC0F4CF8091800267
:1015100082FD35C08091810280FD34C0EBCF809187
:10152000810281FF35C08091800284FD37C187EE42
:1015300090E036C18091800283FF27C0F4CF809174
:10154000800283FD22C08091810281FD21C0EBCF0A
:101550008091800285FD1FC021C08091800285FDA1
:101560001DC019C08091800286FD1BC01DC08091E6
:10157000800286FD19C015C089E390E011C182EE9A
:1015800090E00EC180EE90E00BC186EE90E008C1C5
:1015900084EE90E005C189E290E002C185E390E02D
:1015A000FFC08AE290E0FCC081E390E0F9C08115C1
:1015B00031E5930708F069C0811540E59407F0F024
:1015C0009C0174E0369527957A95E1F7922F9370F8
:1015D000482F437021E030E002C0220F331F4A95AC
:1015E000E2F73C68392B982F9F709695969540E2CC
:1015F000949FC0011124822B932BD2C0883E910569
:1016000068F5803E910508F0CBC0883A9105B8F4A2
:10161000853A910548F0855AE82FF0E0E75EFE4FE5
:10162000808190E09064BCC08130910509F4B3C022
:1016300008F4B4C08430910508F4B0C0B1C08F3B49
:10164000910508F0ABC0885AE82FF0E0EE0FFF1FBD
:10165000E45EFE4F808191819464A2C0811520E2F6
:10166000920758F4811531E0930708F099C08D3E38
:10167000910508F493C0906593C0811540E49407E8
:1016800008F48CC09F70906A8BC0811525E5920785
:1016900008F042C0811534E5930728F0982F882779
:1016A000846F906A7DC0811543E59407B0F09C017A
:1016B0002370332741E050E002C0440F551F2A95A4
:1016C000E2F7282F2695269580E2289F9001112485
:1016D000CA01822B932B9A6863C0811522E5920779
:1016E00028F4982F8827816F906A5AC09C01237034
:1016F000332741E050E002C0440F551F2A95E2F71E
:10170000282F2695269580E2289F90011124CA0152
:10171000822B932B9C6844C0EC01811539E593071B
:10172000A8F48115984528F09C2F8827806F906A2F
:1017300037C0C11586E5D80788F58C2F0E94DD09D2
:101740008F7190E0982F882790622AC081152AE532
:10175000920790F48C2F8F700E94DD0994E0D6954B
:10176000C7959A95E1F7CF70D0E0DC2FCC27D069F0
:101770009E01282BC90114C090568115904270F427
:101780008D2F8F710E94DD09282F2F71CE0199278F
:101790009062922B05C081E090E002C080E090E072
:1017A000DF91CF91089568EE7EEF80E090E00E9497
:1017B000532060E082E090E00E94352060E083E00A
:1017C00090E00E9435201092E9011092EA011092F7
:1017D000EB011092EC0160E084E090E00E94352083
:1017E00064E082E290E00E94352060E085E090E0D5
:1017F0000E94352060E086E090E00E9435206FEF87
:1018000087E090E00E94352040E050E0BA0188E097
:1018100090E00E94472060E08DE090E00E9435203B
:1018200040E050E0BA0188E190E00E94472060E08B
:1018300087E190E00E94352040E050E0BA018CE161
:1018400090E00E94472060E070E080E290E00E941B
:10185000532040E050E0BA0188E190E00E94472028
:101860001092290210922A0210922B0210922C023E
:1018700084E08061809329024091290250912A02DC
:1018800060912B0270912C028FE090E00E94472023
:1018900040E050E0BA0183E190E00E9447200895C3
:1018A0008091E80181111092E8010895809590914E
:1018B000F60189238093F60108959091F6018091B5
:1018C000E701982B90936E018091E8018823D9F06D
:1018D000892B80936E0180910A01882331F08091D9
:1018E000800287FF02C08EE101C086E0E0E7F1E000
:1018F00090E0815028F021912223D9F39F5FF9CF06
:1019000091110E94500C40E250E067EC71E08EE6CD
:1019100091E00E94F721892B21F180E2EEE6F1E0CF
:10192000A7ECB1E001900D928A95E1F7E091770282
:10193000F09178023097A9F080910A01882359F03C
:101940008091800287FF07C080916E0180936F01B4
:1019500086E080936E010280F381E02D8EE691E0B7
:10196000099508952091C601809582238093C60130
:10197000982F977099F430E0482F082E000C550BE3
:101980002417350759F09091810292FF07C0859581
:10199000859585950E94141D1092C6010895CF93D8
:1019A000C0918102C2FB992790F9981791F080FBB2
:1019B000C2F9C09381026091800284E090E00E94AD
:1019C00035206C2F82E290E00E94352082E00E9458
:1019D000B20CCF9108958091C5019091940189171F
:1019E00019F08F5F8770FBCF08950F931F93CF93EC
:1019F000DF938091930182958F7009F05AC0809196
:101A00009001882309F455C08091C501109194017B
:101A100060918E0170918F01C0919101D0919201DE
:101A200091E06F3F09F090E0292F06E0811709F45B
:101A300040C0209721F07F3F21F030E003C031E02B
:101A400001C0322F90E030FD31C0089FF001099FA6
:101A5000F00D1124DF01AB56BE4F11963C9111974A
:101A6000371324C03C91361321C012963C91129733
:101A700031111CC013964D915C9114974C1B5D0B5A
:101A8000483C510598F4809193018F708061809358
:101A90009301E656FE4F80818F70806180838EE8CF
:101AA00091E00E9413040E94EB0C03C00196877022
:101AB000BDCFDF91CF911F910F910895A1E1B0E0CB
:101AC000E4E6FDE00C94751F8C0185E0F801DE0171
:101AD0001D9601900D928A95E1F7F801E2809091B0
:101AE0008E0160918F0140919101509192014115B9
:101AF000510531F06F3F31F481E09F3F19F403C08D
:101B000081E001C080E0F82FF1709F2E80FD1BC1A5
:101B1000F80130812181C380D4808EE8A82E81E035
:101B2000B82EF0909001F601E41BF50BFF2009F4AC
:101B3000C7C080919301E83CF10508F092C0482F9E
:101B4000407F09F051C0621311C093130FC0FE2CE7
:101B5000E1100CC08F70806180939301C5010E94D9
:101B6000130480919301F80185832AC1C114D10423
:101B700031F02F3F31F481E03F3F19F403C081E0A1
:101B800001C080E080FD03C081E08E2502C080E0BE
:101B900090E0F82FF170FF2E80FF1CC08091C501EE
:101BA0004091940156E0841709F4E8C090E0589FF2
:101BB000F001599FF00D1124EB56FE4F6181261361
:101BC00006C06081631303C06281E61203C0019600
:101BD0008770E9CFFE2CEE2009F4F2C080919301CA
:101BE00081608093930149C0621306C0931304C0BF
:101BF000E11002C0F80186C0C8010E94671D882359
:101C000051F1EE2041F120919301822F82958F7046
:101C100090E0029774F080918E0190918F019887E7
:101C20008F831986DB86CA862C87CE0107960E9491
:101C3000130486E0F801AEE8B1E001900D928A95B8
:101C4000E1F70E94F50C0AC06217C9F0C8010E94B2
:101C5000671D81111EC0C8010E941304FF24F39464
:101C6000AFC0482F407F81F78EE891E00E941304B7
:101C700086E0F50111928A95E9F7F12CA1C0931342
:101C8000E5CFE110E3CFF8018583C8010E9413047A
:101C900054C0EE2001F320919301822F82958F7022
:101CA00090E0029734F280918E0190918F019A8397
:101CB00089831B82DD82CC822E83CE010196B7CF31
:101CC000E83CF105D0F5FE2CEE2029F2621327C086
:101CD000931325C02091930120FD18C0822F829577
:101CE0008F70482F50E04115510581F0F801258390
:101CF0004F30510541F08F5F982F9295907F822F42
:101D00008F70892B8583C8010E94130486E0F80137
:101D1000AEE8B1E001900D928A95E1F751C0C8019B
:101D20000E94671D811185CF80919301816080930E
:101D30009301C8010E94130443C086E0F50111928B
:101D40008A95E9F73DC0EE2009F485CFC8010E94CD
:101D5000671DF82E882309F47ECF86E0F801AEE8EF
:101D6000B1E001900D928A95E1F780918E019091FA
:101D70008F010E94591C0E94F50C22C03D872E87BE
:101D80008D859E850E94591C292F22952F70223007
:101D900028F49F7039F0811105C00BC0243028F45D
:101DA0009F7049F4805E883020F0C8010E941304BF
:101DB0009F2CF92C05C0F8019581907F99F7F9CFF8
:101DC0008F2D6196EBE00C94911FA0E0B0E0EBEE5C
:101DD000FEE00C94771F8091170190911801892BD8
:101DE00091F08091ED018F5F8093ED0181110BC027
:101DF0000E944D0890E09093180180931701892B61
:101E000011F40E94C4080DE212E07801B12CC0E088
:101E100087E0C82ECC0E8C2F0E9434098C2D0E9496
:101E200034098C2F0E9497098F73F70190818917CD
:101E300021F08083DD24D39401C0D12C8C2D0E940D
:101E400097098F73F7019781891719F0878381E0CC
:101E500001C080E0D82ABD280E948809CF5FFFEF2B
:101E6000EF1AFF0AC730A1F6C091F101CC23C9F1E6
:101E70000E94101A2091EF013091F001AC01421B39
:101E8000530B9A019093F0018093EF014F3F51055E
:101E900009F020F4452B09F4AEC002C02FEF30E06A
:101EA0001092F1011092EE01E0912702F0912802C8
:101EB000AF01425F5F4F90E030E08081882341F0C6
:101EC000281718F010829C2F03C0821B80833C2FA0
:101ED0003196E417F50789F73093F1019093EE01FD
:101EE0008AC0BB2009F47EC00E94101A9093F001B2
:101EF0008093EF01E0912702F09128028091F10197
:101F0000AFE3B2E09F01225F3F4F4EE1E8019991BC
:101F10008E015C91591731F05081511103C04083FB
:101F20009C9381E031961196E217F30779F780933D
:101F3000F101209124028091F3019091F401222378
:101F400009F43FC0892B31F425982D9826982E98B6
:101F500027982F988091F3019091F4019170892B2B
:101F600079F48091F201882319F026982E9802C006
:101F7000269A2E9A9091F20181E089278093F201AE
:101F80008091F3019091F4018130984780F0109294
:101F9000240260913B0270913C0280913D0290913D
:101FA0003E020E94E1031092F4011092F30180912D
:101FB000F3019091F40101969093F4018093F30161
:101FC0001EC0892BE1F01092F4011092F301609190
:101FD0003B0270913C0280913D0290913E020E9432
:101FE000E1030DC080E09091EE01992309F4A1CFA7
:101FF000811180CF79CFB1107DCF81E0F4CF8B2DCF
:10200000CDB7DEB7E9E00C94931F80911C0287FFE7
:1020100011C08091E80082FD05C0809126028111E7
:10202000F8CF11C08091E8008B770BC08091260219
:10203000882349F08091E80080FFF8CF8091E80084
:102040008E778093E8000895982F973068F59093E5
:10205000E900981739F07091EC002091ED00509153
:10206000F00003C0242F762F50E021FD02C09F5FB7
:10207000ECCF3091EB003E7F3093EB003091ED00E0
:102080003D7F3093ED003091EB0031603093EB00F9
:102090007093EC002093ED005093F0002091EE003F
:1020A00027FDE5CF80E008958F708093E90081E0FF
:1020B000089520912202309123022617370748F015
:1020C0006115710539F42091E8002E772093E8001E
:1020D00001C0B901FC0120E06115710579F1809121
:1020E00026028823F1F18530F1F18091E80083FD2B
:1020F0003CC08091E80082FD2EC08091E80080FF06
:10210000EBCF2091F3008091F20090E0922B6115CB
:10211000710551F08830910538F421912093F10038
:10212000615071090196F3CF21E0089709F020E092
:102130008091E8008E778093E800CECF2111CFCF39
:102140000AC080912602882361F0853061F0809179
:10215000E80083FD0AC08091E80082FFF2CF80E0B2
:10216000089582E0089583E0089581E00895089538
:10217000BC0184E00E94B0190895BC0183E00E9474
:10218000B0190895AAE2B0E0E8ECF0E10C947D1FEC
:10219000ECE1F2E084E292E02091F10021938E17CD
:1021A0009F07D1F780911D02833009F463C030F49A
:1021B000813071F0823009F49FC0B6C08A3009F4D2
:1021C0008BC08B3009F46EC0893009F0ADC020C0DF
:1021D00080911C02813A09F0A7C08091E800877FB6
:1021E0008093E8008091200290912102892B21F4B4
:1021F00060E289EF91E003C060E080E090E070E091
:102200000E9459108091E8008B778093E8008CC081
:1022100080911C02813209F087C080912002909148
:102220002102009719F0039709F07EC08091E80021
:10223000877F8093E8008091E80082FD05C080914F
:1022400026028111F8CF70C02091F3008091F20036
:1022500090E0922B029731F48091F100813011F0DF
:10226000863021F48091F1008093F8018091E8009C
:102270008B7756C080911C02813A09F055C080913D
:10228000200290912102892B09F04EC08091E80034
:10229000877F8093E8008091E80080FFFCCF8091E9
:1022A0000A0139C080911C028132F1F5809120022F
:1022B00090912102892BC1F58091E800877F80935E
:1022C000E8000E94051080911E0280930A0110927E
:1022D000F6010E94871D28C080911C02813221F5E1
:1022E0008091E800877F8093E8000E94051080912C
:1022F0001F028093F70118C080911C02813AA1F45B
:102300008091E800877F8093E8008091E80080FF5B
:10231000FCCF8091F7018093F1008091E8008E77E7
:102320008093E8000E9405108091E80083FFE4C1DB
:1023300080911C0290911D02492F50E04A305105B6
:1023400008F0DAC1FA01E059FF4F0C94D020803830
:1023500021F0823809F0D0C108C080911902909113
:102360001A02992389F082600FC0809120028F7039
:10237000873008F0C1C18093E9008091EB0085FBB4
:10238000882780F91092E9009091E800977F909358
:10239000E8008093F1001092F10070C1282F2D7F8A
:1023A00009F0AAC1882319F0823061F0A5C180919B
:1023B0001E02813009F0A0C1933009F080E08093C3
:1023C0001A022EC080911E0281112AC08091200223
:1023D0008F702FEF280F263008F08EC18093E90010
:1023E0002091EB0020FF1CC0933021F48091EB0082
:1023F000806214C09091EB0090619093EB0021E01B
:1024000030E0A90102C0440F551F8A95E2F74093BE
:10241000EA001092EA008091EB0088608093EB0064
:102420001092E9008091E800877F8093E8000E9485
:10243000051062C1811160C110911E021F77809149
:10244000E3008078812B8093E3008091E800877F10
:102450008093E8000E9405108091E80080FFFCCF87
:102460008091E30080688093E300111102C082E054
:1024700001C083E0809326023FC18058823008F07B
:102480003BC120911E0230911F022C3D53E03507C5
:1024900079F583E08A838AE289834FB7F894DE0175
:1024A000139620E03EE051E2E32FF0E05093570016
:1024B000E49120FF03C0E295EF703F5FEF708E2F35
:1024C00090E0EA3010F0C79601C0C0968D939D93BE
:1024D0002F5F243149F74FBF8091E800877F8093B9
:1024E000E8006AE270E0CE0101960E945910B4C083
:1024F0008091200290912102432F552743305105AE
:10250000A9F068F44130510509F405C14230510584
:1025100009F0F2C084E790E0EAEAF4E04BC041320F
:10252000510529F14232510589F1E6C0C9019927C7
:1025300081309105A1F058F0029709F0DDC0E0E389
:10254000F5E0E4918E2F90E0E0E3F5E030C0E2E7C3
:10255000F5E0E4918E2F90E0E2E7F5E028C0E8E4B2
:10256000F5E0E4918E2F90E0E8E4F5E020C08430BF
:10257000910508F0C1C0880F991FFC01EA5AFE4F6F
:102580000190F081E02D89E090E014C08430910545
:1025900008F0B2C0FC01EE0FFF1FE25BFE4F01909E
:1025A000F081E02DDC01A65BBE4F8C9190E000979E
:1025B00009F4A2C02091E800277F2093E800209131
:1025C0002202309123022817390708F4C90140E09C
:1025D000009789F120912602222309F43DC025307D
:1025E000D9F12091E80023FD37C02091E80022FDB9
:1025F0002FC02091E80020FFEBCF4091F300209105
:10260000F20030E0342B009759F02830310540F4C7
:1026100044914093F100319601972F5F3F4FF3CFE4
:1026200041E02830310509F040E02091E8002E77A4
:102630002093E800CDCF4111CDCF0AC08091260272
:10264000882351F0853041F08091E80083FD04C07B
:102650008091E80082FFF2CF8091E8008B77809331
:10266000E8004AC0803809F047C08091E800877FC1
:102670008093E80080911B028093F1008091E80034
:102680008E77D3CE811138C080911E0290911F02A7
:10269000992702978CF58091E800877F8093E80066
:1026A00010911E0210931B020E940510111106C00A
:1026B0008091E30087FD02C081E001C084E0809347
:1026C000260242E061EC81E00E94241042E061ECCD
:1026D00082E00E94241042E261EC85E00E94241016
:1026E00042E261EC83E00E94241042E260EC84E06C
:1026F0000E942410809126028091E80083FF10C080
:102700008091E800877F8093E8008091EB008062F1
:102710008093EB0005C082E190E0EEE1F5E04ACF66
:10272000AA96E3E00C94991F1F920F920FB60F9296
:1027300011242F933F934F935F936F937F938F93C6
:102740009F93AF93BF93CF93DF93EF93FF93C0918A
:10275000E900CF708091EC00D82FD17080FDD0E8D7
:102760001092E9008091F000877F8093F0007894C8
:102770000E94C2101092E9008091F000886080935E
:10278000F000CD2BCF70C093E900FF91EF91DF9166
:10279000CF91BF91AF919F918F917F916F915F91F9
:1027A0004F913F912F910F900FBE0F901F90189552
:1027B000E8EDF0E080818E7F80831092E20010923D
:1027C000DA001092E100A0EEB0E08C9181608C9371
:1027D00080818F77808319BCA7EDB0E08C918E7FCC
:1027E0008C9380818F7E80831092F5010895A0E004
:1027F000B0E0EDEFF3E10C94781FC8EDD0E08881F4
:102800008F7E8883E7EDF0E080818160808384E0C3
:1028100082BF81E08093F50188818E7F888302EEFC
:1028200010E0F80110821092DA0081EEC82ED12C4F
:10283000F601108288818F778883888180688883F9
:1028400088818F7D888319BC1092260210921B020A
:1028500010921A021092190290EEE92EF12CF70153
:1028600080818B7F808388818160888342E060E003
:1028700080E00E942410F60180818E7F8083F80121
:10288000808181608083808188608083F70180817E
:102890008E7F8083888180618883CDB7DEB7E8E052
:1028A0000C94941F1F920F920FB60F9211242F9326
:1028B0003F934F935F936F937F938F939F93AF93C8
:1028C000BF93EF93FF938091E10082FF09C0809155
:1028D000E20082FF05C08091E1008B7F8093E100E0
:1028E0008091DA0080FF2AC08091D80080FF26C046
:1028F0008091DA008E7F8093DA008091D90080FF8A
:1029000018C080E189BD82E189BD09B400FEFDCF18
:1029100081E0809326028091F50181110FC00E9411
:10292000D8130E94F7138091E20084608093E20044
:1029300005C019BC109226021092F5018091E100A9
:1029400080FF17C08091E20080FF13C08091E200F9
:102950008E7F8093E2008091E20080618093E200AC
:102960008091D80080628093D80019BC85E0809364
:1029700026028091E10084FF30C08091E20084FF54
:102980002CC080E189BD82E189BD09B400FEFDCF84
:102990008091D8008F7D8093D8008091E1008F7E58
:1029A0008093E1008091E2008F7E8093E20080912D
:1029B000E20081608093E20080911B02882311F085
:1029C00084E007C08091E30087FD02C081E001C080
:1029D00083E080932602809126028091E10083FFAC
:1029E00027C08091E20083FF23C08091E100877FB0
:1029F0008093E10082E08093260210921B02809176
:102A0000E1008E7F8093E1008091E2008E7F8093D1
:102A1000E2008091E20080618093E20042E060E0A9
:102A200080E00E9424108091F00088608093F00084
:102A3000FF91EF91BF91AF919F918F917F916F9196
:102A40005F914F913F912F910F900FBE0F901F906C
:102A500018952091E4003091E50095E64091EC0056
:102A6000842F817040FF23C08091E80080FD1DC04D
:102A700080912602882399F0853099F08091EB00AF
:102A800085FD11C04091E4005091E5002417350701
:102A900029F3915011F09A01E1CF84E0089582E08A
:102AA000089583E0089581E0089580E008954091BD
:102AB000E80042FFDDCF0895EF92FF920F931F933E
:102AC000CF93DF937C018B010E942915811119C0DE
:102AD000E70101151105A1F08091E80085FD0AC00C
:102AE0008091E8008E778093E8000E942915882362
:102AF00081F307C089918093F10001501109E9CF5A
:102B000080E0CDB7DEB7E6E00C94961FCF9320911E
:102B10002602243029F5C091E900CF703091EC00F5
:102B2000232F217030FD20E8C22B23E02093E90001
:102B30002091E80020FF11C040E050E060E270E02A
:102B40000E945C15882321F0109224021092250225
:102B50008091E8008E778093E800CF70C093E90001
:102B6000CF910895ACE5B0E0E8EBF5E10C94761F69
:102B700085B7806885BF85B7806885BF84B7877F44
:102B800084BF0FB6F894A895809160008861809307
:102B90006000109260000FBE90E080E80FB6F894DD
:102BA00080936100909361000FBE8BED99E090934C
:102BB0006B0180936A010E94D8130E94F7138091E1
:102BC000E20084608093E20078948091260288235A
:102BD000A1F01091E9001F709091EC00892F817095
:102BE00090FD80E8182B1092E9008091E80083FDA9
:102BF0000E94C2101F701093E90082E084BD93E030
:102C000095BD9AEF97BD80936E000E944D0890E0AD
:102C100090931801809317010E9488090E94CE09A1
:102C2000EDE2F2E0AFE3B2E011921D9222E0EB336D
:102C3000F207D1F78EE090E00E94D6208093270221
:102C400090932802FC010E961192E817F907E1F71C
:102C500089EA8093800089E08093810024982C98F1
:102C60003F988AB18F7C8AB96E98479A8BB18063FE
:102C70008BB9769A8FE090E00E9419206093290228
:102C800070932A0280932B0290932C0267703FEF7F
:102C9000639FB001112475956795759567957727A2
:102CA000709389006093880070938B0060938A0012
:102CB00070938D0060938C000E94C40880E090E0C7
:102CC0000E941F20883E9E4F11F00E94D30B82E08D
:102CD00090E00E94112080934D0284E090E00E94D9
:102CE0001120182F82E290E00E941120212F30E065
:102CF000382B309381022093800283E090E00E9481
:102D00001120682F70E080E090E00E945C1D6091CF
:102D10003B0270913C0280913D0290913E020E94E4
:102D2000E1038BE091E0909378028093770288E151
:102D3000E82EF12C90E4D92E80912602853009F0FE
:102D400054C000E112E180912602853009F047C0AD
:102D500080912602843009F110927B020FB6F8941C
:102D6000A895E09260000FBED092600083B7817F8B
:102D7000846083BF83B7816083BF7894889583B76D
:102D80008E7F83BF0FB6F894A8958091600088610C
:102D900080936000109260000FBE80911A02882319
:102DA00091F20E944D0890E09093180180931701D2
:102DB0000E9488090E94CE09EFE3F2E0119282E0BE
:102DC000ED34F807D9F70E94E50EEFE3F2E08191C8
:102DD000811142C222E0ED34F207C9F7B4CF10925C
:102DE000F6010E94871D0E94991A0E94E50E882311
:102DF00059F08FB7F89440917C0250917D02609118
:102E00007E0270917F028FBFAEE4B2E0EFE3F2E0AA
:102E100000E010E0302F21919D919227A1F180E0F8
:102E2000CC24C394492F4C2151F164968FAF649701
:102E300065963FAF65972C2181E009F480E06696A6
:102E40008FAF66970E94101A8160782F68969FAFA7
:102E50008EAF689764964FAD649765965FAD659742
:102E600066966FAD669768968FAD68970E94F2027E
:102E7000F801E25BFD4F8081C826C0822AC08F5FC7
:102E8000CC0C863079F60F5F1F4F0E30110509F01C
:102E9000C1CF8FEF69968FAF69976A968FAF6A97A8
:102EA0006B961FAE6B970E94101A8160782F6D96FB
:102EB0009FAF8EAF6D9769964FAD69976A965FAD7C
:102EC0006A976B966FAD6B976D968FAD6D970E94FD
:102ED000F20285E0E0E7F2E0DE01119601900D924A
:102EE0008A95E1F7109271021092720210927302A9
:102EF000109274021A81111104C08B81882309F485
:102F000052C080916E0290916F020E94011A9C0142
:102F100090916A02992309F4B7C12531310508F46B
:102F200042C09F3F19F09F5F90936A02112361F0A6
:102F30000E94831B111614F09FEF01C091E0899F3E
:102F4000802D1124809371021B81112361F00E9456
:102F5000831B111614F09FEF01C091E0899F802D13
:102F6000112480937202309171023323E1F0209199
:102F700072022223C1F045EB3403C00111249923CE
:102F800019F09093710203C081E08093710235EBD8
:102F90002303C0011124992319F09093720203C0F6
:102FA00081E0809372021C81111104C08D818823FD
:102FB00009F452C080916C0290916D020E94011A36
:102FC0009C0190916902992309F462C12531310570
:102FD00008F442C09F3F19F09F5F9093690211234C
:102FE00061F00E94631B111614F09FEF01C091E085
:102FF000899F802D1124809373021D81112361F01C
:103000000E94631B111614F09FEF01C091E0899F8D
:10301000802D112480937402309173023323E1F0E8
:10302000209174022223C1F045EB3403C001112426
:10303000992319F09093730203C081E08093730287
:1030400035EB2303C0011124992319F090937402E6
:1030500003C081E08093740245E050E0BE016F5FE1
:103060007F4F80E792E00E94F721892BA9F480919D
:10307000710281110FC08091720281110BC0809189
:103080007302811107C081E090917402911103C015
:1030900080E001C081E080FD0E94C51A85E0FE014C
:1030A0003196A0E7B2E001900D928A95E1F70E9477
:1030B000991A90915C02891380935C028091260298
:1030C000843009F039CE8093E9008091E80082FFD6
:1030D00033CE8091E80085FF22C00E94291581111E
:1030E0001CC000E210E05E0141E2A40EB11C08C069
:1030F0008091F100F50181935F010150110969F0A0
:103100008091E80085FDF4CF8091E8008B77809373
:10311000E8000E942915882399F391E001C090E00E
:103120008091E8008B778093E800992309F404CE1E
:1031300089A18130E9F158F1823021F0843009F41D
:103140007DC0FACD8BA19AA190935D0280935E021F
:103150008DA19CA190935F02809360028FA19EA19C
:10316000909361028093620242E150E063E270E07A
:10317000CE018F5B9F4F0E94012084E0898381E014
:10318000809325028EEF8A83109224020CC019824C
:103190008CE0EEE5F1E0DE01129601900D928A9549
:1031A000E1F78EEF8D87CE0101960E948615C4CD82
:1031B00003E612E00E94A61AF801819391938F0111
:1031C000F2E009361F07B1F781E08983909163022D
:1031D0009A83909164029B83909165029C83909165
:1031E00066029D83909167029E83909168029F83FF
:1031F0009EEF988780932402CE0101960E94861547
:1032000042E150E063E270E0CE0101960E940120AD
:10321000FE01319682E183301CF09189928B01C0CE
:10322000128A815031978F3FB1F742E150E063E25B
:1032300070E0CE0101960E9425207ECD809125026E
:10324000882309F479CD60E070E0CB010E94D11CA5
:103250008AA10E943A1D70CD09BD19BD09B400FEB6
:10326000FDCF8091D8008F7D8093D8008091E000C1
:1032700082608093E0008091E00081FDFCCF10929D
:10328000F6010E94871D5FCD232B09F04CCE8BCE1B
:103290002139314008F0A0CEDFCE8091F8010895A9
:1032A00022E02093E9002FEF3091E800215035FD16
:1032B00006C035ED3A95F1F700002111F5CF2091C8
:1032C000E80025FF0BC040E050E065E070E00E94A0
:1032D0005C158091E8008E778093E8000895CF9385
:1032E000DF9320910A01222339F02091800227FFE9
:1032F00003C060E225E002C068E021E02093E9001D
:103300002FEF3091E800215035FD06C035ED3A959C
:10331000F1F700002111F5CF2091E80025FF1DC035
:10332000EC0180910A01811105C040E050E068E0A5
:1033300070E003C070E040E050E0CE010E945C15F8
:103340008091E8008E778093E80080E2FE01A9EF8B
:10335000B1E001900D928A95E1F7DF91CF91089548
:10336000809382027093840260938302809126028C
:10337000843001F585E08093E9008FEF9091E800BB
:10338000815095FD06C095ED9A95F1F700008111E9
:10339000F5CF8091E80085FF0DC040E050E063E08C
:1033A00070E082E892E00E945C158091E8008E77E0
:1033B0008093E800089578941F920F920FB60F92B1
:1033C00011248F939F93AF93BF9380917C02909130
:1033D0007D02A0917E02B0917F020196A11DB11DD8
:1033E00080937C0290937D02A0937E02B0937F0233
:1033F000BF91AF919F918F910F900FBE0F901F9033
:1034000018959C014FB7F89480917C0290917D02B1
:10341000A0917E02B0917F024FBF821B930B089553
:103420002FB7F89480917C0290917D02A0917E024A
:10343000B0917F022FBF08951F920F920FB60F9287
:1034400011248F939F93AF93BF9380917B0281113F
:1034500013C080917C0290917D02A0917E02B09178
:103460007F024196A11DB11D80937C0290937D0245
:10347000A0937E02B0937F02BF91AF919F918F91F5
:103480000F900FBE0F901F90189520910A012223D4
:10349000C9F02091800227FF15C0262F269526957A
:1034A00026952E31C8F4FC01E20FF11D677081E012
:1034B00090E001C0880F6A95EAF780959281892390
:1034C00082830895FC0106962281621301C0128254
:1034D0003196E817F907C1F70895209179023091E4
:1034E0007A022817390771F090937A028093790253
:1034F000E0917702F0917802309721F00084F18515
:10350000E02D0995089520917502309176022817D3
:10351000390771F09093760280937502E0917702FB
:10352000F0917802309721F00680F781E02D09951F
:103530000895E0917702F0917802309729F0019098
:10354000F081E02D0995089580E00895CF93DF93F1
:103550000E94F11F66E070E00E94BC20D82F0E94FC
:10356000F11F6EE070E00E94BC20C82F6D2F782FF5
:1035700080E00E94200A892B19F08D2F9C2F02C019
:103580000E94A61ADF91CF9108950E94101A2091EF
:103590007102211104C020917202222321F0909324
:1035A0006F0280936E0220917302211104C020915A
:1035B0007402222321F090936D0280936C02E091BB
:1035C0007702F0917802309731F00480F581E02D98
:1035D00080E792E0099508958D3E39F4909172024A
:1035E00097FF35C01092720259C08E3E29F4909117
:1035F00072021916BCF32BC0909171028F3E29F410
:1036000097FF25C01092710249C0803F19F4191626
:10361000CCF31DC090917302893F29F41916BCF4B4
:10362000109273023BC08A3F19F497FF10C0F8CF85
:103630008B3F39F49091740297FF09C01092740285
:103640002DC08C3F21F4909174021916BCF39FE0B9
:10365000980F983080F421E030E0A90102C0440FB7
:10366000551F9A95E2F7CA018095909170028923BF
:103670008093700213C08D3F21F480916B028E7F86
:103680000BC08E3F21F480916B028D7F05C08F3F70
:1036900029F480916B028B7F80936B028091710281
:1036A000811106C080917202811102C010926A02DB
:1036B00080917302811106C080917402811102C051
:1036C00010926902089580916B0280FD18C081FDFF
:1036D00014C082FD16C080916902882381F08C336A
:1036E00080F427E0829FC00111246CE370E00E9407
:1036F000BC20862F672B19F005C083E0089581E078
:10370000089587E0089580916B0280FD17C081FDC8
:1037100017C082FD19C080916A02882399F08C330A
:1037200098F428E3829FC00111246CE370E00E94AA
:10373000BC20862F672B49F481E008958EE0089520
:103740008CE1089588E0089588E308958D3E21F482
:103750000E94831B819504C08E3E29F40E94831B26
:103760008093720208958F3E21F40E94831B8195FD
:1037700004C0803F29F40E94831B80937102089546
:10378000893F19F40E94631B05C08A3F31F40E94EF
:10379000631B81958093730208958B3F21F40E94EF
:1037A000631B819504C08C3F29F40E94631B8093A6
:1037B000740208959FE0980F983078F421E030E08B
:1037C000A90102C0440F551F9A95E2F7CA019091D2
:1037D0007002892B8093700208958D3F21F48091AF
:1037E0006B0281600BC08E3F21F480916B0282607E
:1037F00005C08F3F29F480916B02846080936B0237
:10380000089580E090E00E94831A80E090E00E949A
:103810006D1A1092E7010E945D0CE0E7F2E085E08E
:10382000DF011D928A95E9F710926A0210926902EF
:1038300010926B020E94C51A0895A0E0B0E0E3E286
:10384000FCE10C94771F8C01C0903B02D0903C02AD
:10385000E0903D02F0903E028091E9019091EA01F2
:10386000A091EB01B091EC01C82AD92AEA2AFB2ADF
:10387000CFE1D0E0D701C6010C2E04C0B695A795C4
:10388000979587950A94D2F780FD04C0219790F709
:10389000B12C09C0BC2EB8018C2F0E94200A0E94B6
:1038A000390A019799F38B2DCDB7DEB7E9E00C9477
:1038B000931FCF93DF93EC010E941D1CBE010E9459
:1038C000200A0E94390ADF91CF910895292F9E3056
:1038D00080F5863070F590E036E0239F800D911DD5
:1038E0001124682F677023E0969587952A95E1F754
:1038F00025E0289FF001299FF00D1124EB57FD4F83
:1039000040E050E080E0219130E0062E02C0369584
:1039100027950A94E2F721703327042E01C0220F65
:103920000A94EAF7822B4F5F5F4F4530510559F7F4
:10393000089580E00895292F9E3090F5863080F517
:1039400090E036E0239F800D911D1124282F2770D1
:1039500051E001C0550F2A95EAF723E09695879527
:103960002A95E1F725E0289FF001299FF00D112409
:10397000EB57FD4F20E030E070E04081CB01022E9C
:1039800002C0969587950A94E2F781708195842705
:103990008523842781932F5F3F4F2530310569F7B9
:1039A0000895CF92DF92EF92FF92CF93DF93CDB73E
:1039B000DEB7A0970FB6F894DEBF0FBECDBF0E9452
:1039C000E1036B017C01809125028823B1F02FEF88
:1039D00080E792E0215080409040E1F700C0000075
:1039E00085E08983C701B6010E9491038A838EEF27
:1039F0008B83CE0101960E948615C0923B02D09225
:103A00003C02E0923D02F0923E020E94011CA09610
:103A10000FB6F894DEBF0FBECDBFDF91CF91FF9000
:103A2000EF90DF90CF9008950F931F9341E050E007
:103A300060E070E004C0440F551F661F771F8A9531
:103A4000D2F7409550956095709580913B0290918A
:103A50003C02A0913D02B0913E028A019B010823E5
:103A600019232A233B23C901B8010E94D11C1F91AD
:103A70000F9108950F931F9341E050E060E070E0D4
:103A800004C0440F551F661F771F8A95D2F7809197
:103A90003B0290913C02A0913D02B0913E028A010E
:103AA0009B01082B192B2A2B3B2BC901B8010E9423
:103AB000D11C1F910F9108956093E9017093EA0161
:103AC0008093EB019093EC010E94011C0895FC018E
:103AD000808191810E94591C92959F70963079F057
:103AE00010F4925001C09A50923068F4803F69F00F
:103AF00018F4883E40F409C0843F29F406C0883E8B
:103B000020F0813F11F080E0089581E008958091D8
:103B10000A01882331F08091800287FF02C08EE184
:103B200001C086E0E0E7F1E0DF011D928A95E9F748
:103B30000E94011C0895882321F00E94560C0E94C7
:103B40005D0C0895882339F09091F601892B8093BC
:103B5000F6010E945D0C0895882391F19CEF980F67
:103B6000913A30F4682F8EE691E00E94451A0DC01C
:103B700090E2980F983060F4877091E001C0990F3F
:103B80008A95EAF7892F0E94560C0E945D0C0895D1
:103B90009BE5980F933028F480E090E00E94831A10
:103BA000089598E5980F973128F480E090E00E94FE
:103BB0006D1A08958D3E20F00E94EC1A0E94C51ADD
:103BC0000895CF93882309F49FC0C82F8CEF8C0FE2
:103BD000813A08F05BC080910A018823E1F080916E
:103BE000800287FF18C0EC2FE695E695E695F0E099
:103BF000E259FE4F8281282F30E04C2F477081E040
:103C000090E002C0880F991F4A95E2F78223932320
:103C1000892B59F411C0E0E7F1E08191C81729F030
:103C200081E0E637F807C9F707C06C2F8EE691E010
:103C30000E94451A0E945D0C80910A018823B1F010
:103C40008091800287FF12C0EC2FE695E695E695FD
:103C5000F0E0E259FE4FC77081E090E001C0880FAC
:103C6000CA95EAF79281892B828320C0A0E7B1E050
:103C7000EFEF80E09D91C917C9F0EF3F19F4911162
:103C800001C0E82F8F5F8630A9F735C080E28C0F26
:103C9000883078F4C77081E090E001C0880FCA9541
:103CA000EAF79091F601892B8093F6010E945D0C52
:103CB0002BC0EBE5EC0FE33040F4F0E0E75EFE4FA5
:103CC000808190E00E94831A1FC0E8E5EC0FE73185
:103CD00050F4F0E0EE0FFF1FE45EFE4F8081918113
:103CE0000E946D1A11C0CD3E78F08C2F0E94A61B49
:103CF0000E94C51A09C0EF3FC9F20E2E000CFF0B3F
:103D0000E259FE4FC283D2CFCF9108951092B900ED
:103D10008CE08093B8000895A0E0B0E0E2E9FEE115
:103D20000C94751FB82EEB010E94101A6C01C4315F
:103D3000D10558F0CF3F8FEFD80759F0CE0164E19D
:103D400070E00E945A1F7B0107C0EE24E394F12C1F
:103D500003C025E0E22EF12C84E8A82E94EA992EE7
:103D60001092BC009092BC000E94101A8C018091AD
:103D7000BC0087FD08C00E94101A801B910B8E1595
:103D80009F05A8F32AC08091B900887F883041F050
:103D90008091B900887F803119F00FEF1FEF1FC0AD
:103DA000B092BB00A092BC000E94101A8C018091BE
:103DB000BC0087FD08C00E94101A801B910B8E1555
:103DC0009F05A8F30AC08091B900887F883111F05F
:103DD000803419F700E010E00EC00EEF1FEFCF3F68
:103DE0008FEFD80709F4BCCFC6010E94011A8C17C7
:103DF0009D0708F4B5CFC801CDB7DEB7EBE00C9452
:103E0000911F0F931F93CF93DF93EB018093BB0020
:103E100084E88093BC000E94101A8C018091BC0041
:103E200087FD0EC0CF3F8FEFD807C1F30E94101A55
:103E3000801B910B8C179D0788F38EEF9FEF0CC0B2
:103E40002091B900287F81E090E0283211F480E0D1
:103E500090E0919581959109DF91CF911F910F91FC
:103E600008950F931F93CF93DF93EC0184E8809321
:103E7000BC000E94101A8C018091BC0087FD0EC00E
:103E8000CF3F8FEFD807C1F30E94101A801B910B10
:103E90008C179D0788F38EEF9FEF03C08091BB00C6
:103EA00090E0DF91CF911F910F91089584E9809365
:103EB000BC000895AA1BBB1B51E107C0AA1FBB1F72
:103EC000A617B70710F0A61BB70B881F991F5A95A6
:103ED000A9F780959095BC01CD0108952F923F924E
:103EE0004F925F926F927F928F929F92AF92BF920A
:103EF000CF92DF92EF92FF920F931F93CF93DF93B6
:103F0000CDB7DEB7CA1BDB0B0FB6F894DEBF0FBE12
:103F1000CDBF09942A88398848885F846E847D845F
:103F20008C849B84AA84B984C884DF80EE80FD8061
:103F30000C811B81AA81B981CE0FD11D0FB6F894D7
:103F4000DEBF0FBECDBFED0108958F929F92AF925D
:103F5000BF92CF92DF92EF92FF92CF93DF93EC016B
:103F6000688179818A819B8161157105810591053F
:103F700021F464E279ED8BE597E02DE133EF41E048
:103F800050E00E94592049015A019B01AC01A7EA67
:103F9000B1E40E9478206B017C01ACEEB4EFA50186
:103FA00094010E948620DC01CB018C0D9D1DAE1D6D
:103FB000BF1DB7FF03C00197A109B048888399834B
:103FC000AA83BB839F77DF91CF91FF90EF90DF9023
:103FD000CF90BF90AF909F908F9008950E94A51FA3
:103FE000089580E091E00E94A51F0895A0E0B0E050
:103FF0008093000190930101A0930201B09303010B
:104000000895DC01CB01FC01F999FECF06C0F2BD99
:10401000E1BDF89A319600B40D9241505040B8F786
:104020000895F999FECF92BD81BDF89A992780B580
:104030000895A6E1B0E044E050E00C940320A8E12C
:10404000B0E042E050E00C940320DC01A40FB51F67
:104050004150504048F0CB01840F951F2E910E9493
:10406000362041505040D0F70895262FF999FECFC1
:1040700092BD81BDF89A019700B4021639F01FBABB
:1040800020BD0FB6F894FA9AF99A0FBE08950396D8
:10409000272F0E9436200E943520252F0E9436208F
:1040A000242F0C9436200196272F0E9436200C9442
:1040B0003520052E97FB1EF400940E94702057FDBA
:1040C00007D00E948B2007FC03D04EF40C94702084
:1040D00050954095309521953F4F4F4F5F4F089534
:1040E00090958095709561957F4F8F4F9F4F089564
:1040F0000E94AD20A59F900DB49F900DA49F800DB0
:10410000911D11240895B7FF0C9478200E94782007
:10411000821B930B0895A1E21A2EAA1BBB1BFD0163
:104120000DC0AA1FBB1FEE1FFF1FA217B307E40796
:10413000F50720F0A21BB30BE40BF50B661F771FEE
:10414000881F991F1A9469F76095709580959095CE
:104150009B01AC01BD01CF010895A29FB001B39FA7
:10416000C001A39F700D811D1124911DB29F700D80
:10417000811D1124911D089597FB072E16F40094BC
:1041800007D077FD09D00E945A1F07FC05D03EF4E6
:10419000909581959F4F0895709561957F4F0895F3
:1041A000EE0FFF1F0590F491E02D09940F931F93DC
:1041B000CF93DF938230910510F482E090E0E0919C
:1041C000BE02F091BF0220E030E0A0E0B0E0309706
:1041D00019F1408151810281138148175907C8F0B4
:1041E0008417950769F4109731F012960C93129783
:1041F00013961C9327C00093BE021093BF0222C0E7
:104200002115310519F04217530718F49A01BD0121
:10421000EF01DF01F801DBCF21153105F9F0281B93
:10422000390B2430310580F48A819B816115710539
:1042300021F0FB019383828304C09093BF0280939B
:10424000BE02FE01329644C0FE01E20FF31F8193CD
:10425000919322503109398328833AC02091BC02BE
:104260003091BD02232B41F42091060130910701CA
:104270003093BD022093BC022091040130910501CE
:104280002115310541F42DB73EB7409108015091F9
:104290000901241B350BE091BC02F091BD02E2172D
:1042A000F307A0F42E1B3F0B2817390778F0AC0159
:1042B0004E5F5F4F2417350748F04E0F5F1F509336
:1042C000BD024093BC028193919302C0E0E0F0E014
:1042D000CF01DF91CF911F910F910895CF93DF937D
:1042E000009709F481C0FC01329713821282A091D9
:1042F000BE02B091BF02109781F420813181820FFC
:10430000931F2091BC023091BD022817390751F547
:10431000F093BD02E093BC0267C0ED0120E030E005
:10432000CE17DF0740F44A815B819E01411551059C
:10433000F1F0EA01F5CFD383C28340815181840F2C
:10434000951FC817D90759F488819981840F951F43
:104350000296918380838A819B8193838283211536
:10436000310529F4F093BF02E093BE023DC0E9019C
:10437000FB83EA8349915991C40FD51FEC17FD07C0
:1043800061F480819181840F951F0296E9019983E0
:104390008883828193819B838A83E0E0F0E0129698
:1043A0008D919C911397009719F0FD01DC01F7CFD7
:1043B0008D919C9111979D012E5F3F4F820F931F0E
:1043C0002091BC023091BD022817390769F430975B
:1043D00029F41092BF021092BE0202C01382128210
:1043E000B093BD02A093BC02DF91CF910895FB0171
:1043F000DC0104C08D910190801921F4415050409E
:0C440000C8F7881B990B0895F894FFCFB3
:10440C00010000000000C0022000014D196F19507E
:10441C0019BD10B810B7102000818283E200E900AA
:10442C00EA00B500B600B700CD008301CC008A01CC
:10443C009201940121022302240225022602270262
:10444C002A02B300B4006F0070004022476D6A046A
:10445C00480401049403BC04D504F5040E057071E2
:0A446C005262582F58505145390094
:00000001FF
