:100000000C9404030C9421030C9421030C942103FD
:100010000C9421030C9421030C9421030C942103D0
:100020000C9421030C9421030C94AF110C946B11CC
:100030000C9498210C9421030C9421030C9421031B
:100040000C9421030C9421030C9421030C942103A0
:100050000C9421030C94760D0C9421030C94210331
:100060000C9421030C9421030C9421030C94210380
:100070000C9421030C9421030C9421030C94210370
:100080000C9421030C9421030C9421030C94210360
:100090000C9421030C9421030C9421030C94210350
:1000A0000C9421030C9421030C94210335002B00A4
:1000B000E000E100015100001E00140004001D00DA
:1000C0006400AA001F001A0016001B003900290056
:1000D0002000080007000600E3002C0021001500A6
:1000E00009001900E200A900220017000A0005001B
:1000F0000000490023002A00000028000000A8009A
:100100002E002A00000028000000A60023001C008A
:100110000B00110000004908240018000D00100019
:10012000E600120825000C000E00360065000151A3
:10013000260012000F003700B5004C002700130006
:1001400033003800300011502D002F003461E500DD
:100150003100000001000100010001000100000069
:100160003A00F900FA003D044C0246003B00F4005E
:10017000F200FB00490101003C00F000F1004700E3
:10018000490201003D00F500F300FC0001004604B7
:100190003E00F600F700F8000000B2003F0001004A
:1001A00000000100000048003E00010000000100C6
:1001B000000001003F0001000100010000000100FB
:1001C00040004A005000B600F40001004100520017
:1001D0005100B0000100010042004D004F00B70087
:1001E0000100010043004B004E00010001001250CD
:1001F00044004500680069006A000000085D0100D5
:1002000001000100010000001E0223021E02010085
:10021000010001001F0224021F0201000100010071
:100220002002250220020100010001002102260215
:100230002102010001000100220227022202010026
:100240000000010023020100000001000000010085
:100250000100010000000100000001000100010098
:10026000010001000000010053005F005C00590024
:1002700062000100540060005D005A00620001004D
:10028000550061005E005B006300010056005700EE
:1002900057005800580013500100010001000100F0
:1002A000010000003B0001000100010037000000D8
:1002B0001E02010001000E000B002F001F020F00A4
:1002C00001000100330001002002010001000C00C8
:1002D000120001002102010001001800010030009D
:1002E00022020D0034000100000024022302360027
:1002F0000000380000002702AA002A0000002800A1
:1003000000000100A900010001000100000001003F
:10031000A80001000100010001000100010001002E
:1003200001000100010001000100010001000100C5
:100330000100010001000100010001000100105056
:100340000100010001000100010000000A0000009E
:1003500000000306B200080001000000A800080029
:1003600002000200A0001400030057494E555342FA
:1003700000000000000000000000840004000700EE
:100380002A004400650076006900630065004900AA
:100390006E00740065007200660061006300650015
:1003A00047005500490044007300000050007B00E6
:1003B0003900440042003700460031004600440046
:1003C0002D0037004500370041002D00340030007B
:1003D000300038002D0039003300360042002D0077
:1003E0003600420041003600430031003900410030
:1003F00033003000380063007D00000000001B0364
:1004000001636F6E6669677572652E6572676F64EA
:100410006F782D657A2E636F6D0005010902A101C9
:1004200085020901A1000509190129051500250109
:10043000950575018102950175038101050109305A
:1004400009311581257F95027508810609381581C6
:10045000257F950175088106050C0A38021581254E
:100460007F950175088106C0C005010980A101853D
:100470000319012AB700150126B7009501751081EF
:1004800000C0050C0901A101850419012AA002156B
:100490000126A002950175108100C005010906A181
:1004A000018505050719E029E7150025019508755F
:1004B0000181020507190029EF1500250195F07546
:1004C000018102050819012905950575019102951B
:1004D0000175039101C005010906A101050719E095
:1004E00029E7150025019508750181029501750818
:1004F00081010507190029FF150026FF00950675E3
:1005000008810005081901290595057501910295D5
:100510000175039101C009025200030100A0FA090C
:100520000400000103010100092111010001224022
:10053000000705810308000A090401000103000007
:100540000009211101000122BC00070582032000DF
:100550000A0904020002FF000000070583034000AF
:100560000507050403400005120110020000000801
:1005700097327449010001020301040330000000B6
:1005800016034500720067006F0044006F0078009A
:10059000200045005A00000030035A00530041007B
:1005A000200054006500630068006E006F006C005E
:1005B0006F006700790020004C006100620073004A
:1005C000200049006E006300000004030904050FC9
:1005D0003900021C100500DF60DDD88945C74C9C3E
:1005E000D2659D9E648A9F00000306B200450018F4
:1005F00010050038B60834A909A0478BFDA07688FD
:1006000015B665000142000011241FBECFEFDAE0ED
:10061000DEBFCDBF11E0A0E0B1E0EAE9F8E402C03E
:1006200005900D92A83FB107D9F723E0A8EFB1E0FC
:1006300001C01D92AA33B207E1F70E94271E0C9455
:1006400019240C940000E8EDF0E080818E7F808317
:100650001092E2001092DA001092E100A0EEB0E0F9
:100660008C9181608C9380818F77808319BCA7EDFA
:10067000B0E08C918E7F8C9380818F7E80831092EE
:10068000070308952091E4003091E50095E6A90163
:100690002091EC00822F817020FF06C08091E8003D
:1006A00080FF06C080E008952091E80022FD1AC076
:1006B00080912C03882389F0853089F08091EB00AC
:1006C00085FD0FC02091E4003091E50042175307EB
:1006D000F9F29150E1F684E0089582E0089583E014
:1006E000089581E00895EF92FF920F931F93CF93A7
:1006F0007C018B010E944203C82F882371F08C2F4C
:10070000CF911F910F91FF90EF900895F701819184
:100710007F018093F100015011090115110579F352
:100720008091E80085FDF2CF8091E8008E7780937C
:10073000E8000E944203882381F3C82FE0CF809114
:100740002E0387FF13C08091E80082FF06C08091CE
:10075000E8008B778093E80004C080912C0381111E
:10076000F2CF089580912C038823D9F38091E8007B
:1007700080FFF8CF8091E8008E77ECCF982F909390
:10078000E900242F762F50E0891731F07091EC00AA
:100790002091ED005091F00021FD07C09F5F973040
:1007A00071F78093E90081E008953091EB003E7F7E
:1007B0003093EB003091ED003D7F3093ED003091B0
:1007C000EB0031603093EB007093EC002093ED0070
:1007D0005093F0002091EE0027FDE0CF80E00895D7
:1007E000CF92DF92EF92FF920F931F93CF93DF93FD
:1007F000C8EDD0E088818F7E8883E7EDF0E08081CE
:100800008160808384E082BF81E0809307038881D8
:100810008E7F888302EE10E0F80110821092DA00D9
:1008200081EEC82ED12CF601108288818F778883C3
:1008300088818068888388818F7D888319BC109225
:100840002C0310922D0310922B0310922A0390EE8A
:10085000E92EF12CF70180818B7F80838881816074
:10086000888342E060E080E00E94BE03F601808160
:100870008E7F8083F80180818160808380818860A1
:100880008083F70180818E7F808388818061888367
:10089000DF91CF911F910F91FF90EF90DF90CF905C
:1008A0000895FC01809134039091350386179707D2
:1008B000A0F06115710529F48091E8008E7780938E
:1008C000E80090E06115710551F4911108C0809124
:1008D000E80082FF35C080E00895BC01F2CF80912E
:1008E0002C038823C9F18530C9F18091E80083FD8C
:1008F00031C08091E80082FDEACF8091E80080FF5E
:10090000E1CF8091F3002091F200382F611571053D
:1009100019F02830310558F091E02830310509F000
:1009200090E08091E8008E778093E800CBCF8491AF
:100930008093F1003196615071092F5F3F4FE6CFF0
:1009400080912C03882341F0853041F08091E800AC
:1009500083FFBDCF81E0089582E0089583E008958C
:10096000FC01809134039091350386179707A0F01E
:100970006115710529F49091E8009E779093E80045
:1009800090E06115710551F4911108C08091E80063
:1009900082FF34C080E00895BC01F2CF80912C0327
:1009A0008823C1F18530C1F18091E80083FD30C01A
:1009B0008091E80082FDEACF8091E80080FFE1CFDE
:1009C0008091F3002091F200382F6115710519F024
:1009D0002830310558F091E02830310509F090E0D9
:1009E0002091E8002E772093E800CBCF819180936F
:1009F000F100615071092F5F3F4FE7CF80912C03C9
:100A0000882341F0853041F08091E80083FFBECF1C
:100A100081E0089582E0089583E0089580910903BC
:100A2000089520912C03243099F423E02093E900C9
:100A300070E050E040E00E947303882321F01092A0
:100A40000503109206038091E8008E778093E800FA
:100A500008959091EC02803F59F48091ED0287FF58
:100A60000DC01092ED0291110BC01092E70208C068
:100A7000813F81F48091ED0218169CF3992381F057
:100A80008091EE029091EF02892B09F064C01092E0
:100A9000E4020895823F49F497FFF0CF1092EC02F0
:100AA0008091ED028111ECCFE0CF833F19F419164C
:100AB000ACF3E4CF2091EE02893F29F41216F4F64C
:100AC0001092EE02DBCF8A3F19F427FFD7CFF8CF81
:100AD0002091EF028B3F29F427FFD0CF1092EF0235
:100AE000CDCF8C3F19F41216CCF3C8CF843F31F42C
:100AF0008091EB028E7F8093EB02C0CF853F21F483
:100B00008091EB028D7FF7CF863F21F48091EB023D
:100B10008B7FF1CF873F21F48091EB02877FEBCF72
:100B2000883F21F48091EB028F7EE5CF8D3F31F439
:100B30008091B8028E7F8093B802A0CF8E3F21F4BF
:100B40008091B8028D7FF7CF8F3F09F097CF8091CA
:100B5000B8028B7FF0CF08958091B80280FD1AC053
:100B600081FD14C082FD14C08091E402882391F0BD
:100B70008C3370F427E0829FC00111246CE370E095
:100B80000E948C22862F672B29F0089583E0089518
:100B900087E0089581E008958091B80280FD16C035
:100BA00081FD16C082FD18C08091E702882391F074
:100BB0008C3390F423E2829FC00111246CE370E037
:100BC0000E948C22862F672B49F0089588E00895B3
:100BD00081E1089585E0089583E2089581E0089514
:100BE000803F31F40E94CC0581958093ED020895F9
:100BF000813F19F40E94CC05F8CF823F31F40E9466
:100C0000CC0581958093EC020895833F19F40E94EE
:100C1000CC05F8CF893F29F40E94AC058093EE0201
:100C200008958A3F21F40E94AC058195F7CF8B3F50
:100C300031F40E94AC0581958093EF0208958C3FBA
:100C400019F40E94AC05F8CF843F31F48091EB0297
:100C500081608093EB020895853F21F48091EB023F
:100C60008260F7CF863F21F48091EB028460F1CF60
:100C7000873F21F48091EB028860EBCF883F21F41D
:100C80008091EB028061E5CF8D3F31F48091B80215
:100C900081608093B80208958E3F21F48091B8025C
:100CA0008260F7CF8F3FB9F78091B8028460F1CFAF
:100CB0009C014FB7F8948091B4029091B502A09135
:100CC000B602B091B7024FBF821B930B08952091DB
:100CD00012012223C9F02091D10227FF15C0E62F6F
:100CE000E695E695E695EE31D8F4E80FF92FF11D7B
:100CF000677021E030E001C0220F6A95EAF7209585
:100D00008281282322830895FC013296089621913E
:100D1000621303C0DF0111971C92E817F907B9F7B6
:100D20000895209112012223C1F02091D10227FFC2
:100D300014C0E62FE695E695E695EE31F8F4E80F57
:100D4000F92FF11D677021E030E001C0220F6A9594
:100D5000EAF78281822B82830895FC0132962FEF7D
:100D600030E04191641751F02F3F19F4411101C057
:100D7000232F3F5F3630A9F72F3F09F40895820FE4
:100D8000911D27FD9A95FC0162830895CF92DF9211
:100D9000EF92FF926C01EE24FF2420E0C114D104F5
:100DA000E104F10419F0C701B60120E1C72ED82EE5
:100DB000E92EFF24C114D104E104F10419F0285FE5
:100DC000C701B6016B017C0154E0F694E794D79417
:100DD000C7945A95D1F7C114D104E104F10419F074
:100DE0002C5FC701B6016B017C0142E0F694E794E9
:100DF000D794C7944A95D1F7C114D104E104F10402
:100E000019F02E5FC701B60196958795779567957E
:100E1000672B682B692B09F02F5F822FFF90EF90D3
:100E2000DF90CF9008958091AF0281111092AF02B0
:100E300008958091AE029091AD02892B9091AC0201
:100E4000892B8093F8019091AF029923A1F0892B0F
:100E50008093F80180911201882341F18091D102A1
:100E600087FF24C08EE1EAEFF1E090E0815000F5C9
:100E700091110E941307E091D302F091D4023097B0
:100E8000E1F080911201882359F08091D10287FF0F
:100E900007C08091F8018093F90185E08093F80103
:100EA0000280F381E02D88EF91E0099486E0DBCFAA
:100EB00021912223D9F29F5FD9CF0895E92FEE0F18
:100EC000E90FEE0F8E0F982F977086958695869571
:100ED00025E0829FF0011124EC58FD4F50E040E0E6
:100EE00080E0219130E0092E02C0369527950A94C2
:100EF000E2F721703327042E01C0220F0A94EAF78B
:100F0000822B4F5F5F4F4530510559F70895E92F08
:100F1000EE0FE90FEE0F8E0F982F977041E001C092
:100F2000440F9A95EAF786958695869595E0899F70
:100F3000F0011124EC58FD4F30E020E070E05191B9
:100F4000DF011197CB01022E02C0969587950A9476
:100F5000E2F7817081958527842385278C932F5F05
:100F60003F4F2530310559F70895809173029091D4
:100F70004202981301C008958F5F8770FACF8823CB
:100F800041F080959091AD0289238093AD020C943D
:100F900019070895882339F09091AD02982B90930A
:100FA000AD020C9419070895882341F08095909123
:100FB000AE0289238093AE020C941907089588230A
:100FC00039F09091AE02982B9093AE020C941907D1
:100FD000089520912602309127022817390771F0D1
:100FE0009093270280932602E091D302F091D402DD
:100FF000309721F00084F185E02D09940895209127
:101000002402309125022817390771F090932502A8
:1010100080932402E091D302F091D402309721F022
:101020000680F781E02D09940895E091D302F091B4
:10103000D402309721F00190F081E02D099480E0F6
:1010400008959091D10292FF06C0282F2871283070
:10105000F9F4877F846093FF06C0282F2871283118
:10106000F1F4877E84612091D20220FF06C0382FE0
:1010700038713830D9F4877F816021FF06C0282F6E
:1010800028712831D1F4877E816194FD877E08958F
:10109000282F24712430F9F68B7F8860DCCF282F2D
:1010A0002471243101F78B7E8861DDCF382F3171B7
:1010B000313019F78E7F8860E0CF282F21712131E0
:1010C00021F78E7E8861E1CFCF93DF93972F70E079
:1010D00026E0929F600D711D1124FB0134E5839F72
:1010E000E00DF11D1124EE0FFF1FE455FF4FC591D8
:1010F000D491CE01C238D105B9F1E8F5C133D1059B
:1011000009F499C050F5C932D10509F48DC0CA322D
:10111000D10509F497C0C11542E5D40708F0C4C051
:10112000C11521E5D20708F038C1C83ED10508F045
:101130009DC0C03ED10568F5C83AD10508F089C008
:10114000C53AD10508F005C1C130D10511F120978C
:1011500009F443C02497E8F440C0C533D10509F42D
:101160005CC0C933D105B9F62091D102237089F052
:1011700080EE90E00EC0C33ED10591F168F4C03E10
:10118000D105F9F0C23ED10531F62091D10222FD00
:1011900020C0DF91CF910895C63ED10561F1C73ED1
:1011A000D10581F1C43ED10509F0B5CF2091D2021D
:1011B00021FFEFCF8091D10284FD0FC087EE90E038
:1011C000E8CF2091D10220FD19C13091D20230FF29
:1011D000E0CF83EE90E024FFDCCF90E080E0D9CF39
:1011E0002091D10222FD0DC13091D20230FDC0CF3D
:1011F00024FFCFCFF2CF2091D10223FFCACF24FD0D
:10120000ECCFDCCF2091D10223FDFEC03091D20281
:1012100031FFEECF84EE90E0BCCF2091D10225FFCC
:10122000B8CF89E290E0B5CF2091D10225FFB1CFB0
:1012300085E390E0AECF2091D10226FFAACF8AE2CB
:1012400090E0A7CF2091D10226FFA3CF81E390E0C9
:10125000A0CFCF3BD10508F6C85AD0E0CC0FDD1F98
:10126000C653DE4F88819981946493CFC11530E2D3
:10127000D30760F4C11541E0D40708F08ACFCE014E
:101280009065C03FD10508F084CFA7CFC11580E499
:10129000D80708F4A2CFC11590E5D90708F061C0BE
:1012A000CE019F70906A75CFC11526E5D20718F55B
:1012B000C11535E5D30708F086C0C11544E5D4074C
:1012C00008F07CC09C2F96959695AE0143705527EB
:1012D000C115D34508F466C021E030E002C0220FFA
:1012E000331F4A95E2F740E2949FC0011124822BFC
:1012F000932B9A684ECFC1159AE5D90778F4C1159A
:1013000029E5D20708F069C0C11538E5D30708F40C
:1013100064CF9C2F8827806F906A3BCFC1154BE527
:10132000D40708F45ACFC1158CE5D80708F462C079
:10133000CE0190568115904208F04FCF8D2F8F71BE
:101340000E94210890E0982F882788279F718C2B76
:1013500042C0C55AD0E0C953DE4F888190E0906406
:1013600018CF9E01E4E036952795EA95E1F72370C2
:101370008C2F86958695837030E2839FC00111245F
:10138000922BC37021E030E002C0220F331FCA95B8
:10139000E2F7822B932B9C68FCCE9C2F8827816FD1
:1013A000906AF7CE21E030E002C0220F331F4A9549
:1013B000E2F740E2949FC0011124EBCF9C2F8827D5
:1013C000846F906AE6CE8C2F0E94210890E0982FBF
:1013D000882788279F719062DCCE8C2F8F700E94A7
:1013E000210834E0D695C7953A95E1F7CF709C2F48
:1013F0009069CFCECE0199279066CBCE89E390E05D
:10140000C8CE82EE90E0C5CE86EE90E0C2CEBF920E
:10141000CF92DF92EF92FF920F931F93CF93DF93C0
:101420008C01C0900003D0900103E0900203F09083
:1014300003038091B0029091B102A091B202B091E9
:10144000B302C82AD92AEA2AFB2ACFE1D0E0BC2E6F
:10145000D701C6010C2E04C0B695A7959795879520
:101460000A94D2F780FD0EC0219788F7B12C8B2DFE
:10147000DF91CF911F910F91FF90EF90DF90CF9070
:10148000BF900895B8018C2F0E946408019761F302
:10149000EECFCF93DF93EC010E94070ABE01DF91EC
:1014A000CF910C9464080E94490A292F2F709295BD
:1014B0009F7092509E3078F4E92FF0E0E55EFB4D8E
:1014C0000C94A022803F19F020F4883E20F481E0A3
:1014D0000895843FE1F380E00895883EC0F3813FA2
:1014E000D1F7F5CF822F8695869586950895279812
:1014F0002F98089526982E98089525982D98089548
:1015000056985E980895279A2F9A0895269A2E9AAB
:101510000895259A2D9A0895CF92DF92EF92FF9227
:10152000CF936B017C010E94C606C82F0E94800ADF
:101530000E947D0A0E947A0A0E94770AC150C73031
:1015400040F4EC2FF0E0E75DFB4D0C94A0220E94EC
:10155000890AC701B601CF91FF90EF90DF90CF903D
:1015600008950E94890A0E94860AF3CF0E94890A80
:101570000E94830AEECF0E94890A0E94860AF8CF51
:10158000209828982198299822982A9823982B986F
:1015900052985A9853985B983E9846980895809828
:1015A000889A8198899A84988C9A85988D9A869839
:1015B0008E9A87988F9A0895CF9384E090E00E9446
:1015C000A622C82F81E290E00E94A622982F8C2F9D
:1015D000CF910895CF93DF9300D00F92CDB7DEB7B0
:1015E00090912C03943019F589837B836A8382E080
:1015F0008093E9008FEF9091E800815095FD06C03F
:1016000095ED9A95F1F700008111F5CF8091E800F2
:1016100085FF0DC050E040E063E070E0CE01019630
:101620000E9473038091E8008E778093E8000F900A
:101630000F900F90DF91CF910895BC0184E00C943E
:10164000EA0ABC0183E00C94EA0A9C0182E08093E0
:10165000E9009FEF8091E800915085FD06C085ED7F
:101660008A95F1F700009111F5CF8091E80085FF90
:101670000CC050E040E066E070E0C9010E947303D6
:101680008091E8008E778093E8000895CF93DF93F0
:10169000EC01809112018823B1F18091D10287FF82
:1016A00032C060E282E08093E9008FEF9091E80021
:1016B000815095FD06C095ED9A95F1F700008111D6
:1016C000F5CF8091E80085FF1BC08091120170E08A
:1016D00050E040E0811104C050E040E068E070E07C
:1016E000CE010E9473038091E8008E778093E8001A
:1016F00080E2FE01AAE0B3E001900D928A95E1F745
:10170000DF91CF91089568E081E0CDCFEF92FF9215
:101710000F931F93CF93DF930E94800A0E947D0A4C
:101720000E947A0A0E94770A88E8E82EF12C8FEF4F
:1017300090E0F701918380830AE810E0F80191833B
:101740008083CCE8D0E0998388830E94890AFFEFE8
:1017500020E782E0F15020408040E1F700C0000027
:101760000E94860A9FEFE0E7F2E09150E040F040EF
:10177000E1F700C000000E94830A2FEF80E792E0AB
:10178000215080409040E1F700C000000E947D0A97
:10179000EFEFF0E722E0E150F0402040E1F700C039
:1017A00000000E947A0A8FEF90E7E2E081509040BB
:1017B000E040E1F700C000000E94770A8091BF027C
:1017C0008770FFEF8F9FC0011124959587959595A0
:1017D00087959927F70191838083F801918380830E
:1017E000998388830E94800A0E947D0A0E947A0A57
:1017F000DF91CF911F910F91FF90EF900C94770A9A
:101800006FEE7EEF90E080E00E94D82260E082E000
:1018100090E00E94BA2260E083E090E00E94BA2249
:101820001092B0021092B1021092B2021092B30262
:1018300060E084E090E00E94BA2260E081E290E003
:101840000E94BA2260E085E090E00E94BA2260E047
:1018500086E090E00E94BA226FEF87E090E00E945D
:10186000BA2240E050E0BA0188E090E00E94CC2229
:1018700060E08DE090E00E94BA2240E050E0BA01C2
:1018800088E190E00E94CC2260E087E190E00E9435
:10189000BA2240E050E0BA018CE190E00E94CC22F4
:1018A00060E080E290E00E94BA221092BF021092A3
:1018B000C0021092C1021092C20284E08061809343
:1018C000BF024091BF025091C0026091C10270916D
:1018D000C2028FE090E00E94CC2240E050E0BA01CA
:1018E00083E190E00C94CC22CF93C82F873070F521
:1018F0008091060190910701892B89F564E670E0DB
:1019000080E40E94C5219093070180930601892BF2
:10191000D1F464E670E082E10E94212290930701F5
:1019200080930601892B79F481E090E001C0880F53
:10193000CA95EAF764E670E080950E9421229093B0
:10194000070180930601CF910C9474228A30B9F07C
:1019500040F4883071F0893079F0209A2898CF913E
:1019600008958C3091F070F08D30B9F73E9A46981A
:10197000F6CF219A2998F3CF229A2A98F0CF239A6A
:101980002B98EDCF529A5A98EACF539A5B98E7CFAB
:1019900080E290E090930701809306018091180205
:1019A00081110EC00E94BF2181E0809318022FEFA9
:1019B00083ED90E3215080409040E1F700C00000AB
:1019C00064E670E080E40E94C52190930701809353
:1019D0000601892B09F04EC064E670E080E00E94A9
:1019E00021229093070180930601892B09F042C0C0
:1019F00064E670E080E00E942122909307018093CA
:101A00000601892BB9F564E670E08FE30E9421227C
:101A10009093070180930601892B61F50E9474223F
:101A200064E670E080E40E94C521909307018093F2
:101A30000601892BF9F464E670E08CE00E94212213
:101A40009093070180930601892BA1F464E670E06E
:101A500080E00E9421229093070180930601892B48
:101A600049F464E670E08FE30E942122909307011D
:101A7000809306010E947422809106010895CF93FD
:101A8000873050F58091060190910701C0E0892BC5
:101A900071F464E670E081E40E94C521909307012F
:101AA00080930601892B31F0C0E00E9474228C2FB4
:101AB000CF91089584E690E00E94502297FF05C0E0
:101AC0009093070180930601EFCFC82FC095109225
:101AD000070110920601E9CFCFB18FB186958695A7
:101AE0008C73C3708C2BC82FC095E1CF78941F9254
:101AF0001FB61F9211248F939F93AF93BF93809132
:101B0000B4029091B502A091B602B091B7020196CD
:101B1000A11DB11D8093B4029093B502A093B602AB
:101B2000B093B702BF91AF919F918F911F901FBE4D
:101B30001F9018952FB7F8948091B4029091B50238
:101B4000A091B602B091B7022FBF08950E949A0DDE
:101B50009C019091EC028091ED02982B21F0309342
:101B6000E9022093E8029091EE028091EF02982B17
:101B700021F03093E6022093E502E091D302F09148
:101B8000D402309749F082E08093EA020480F58124
:101B9000E02D8AEE92E0099408951092AD02109221
:101BA000AC020E94190786E0EAEEF2E0DF011D9226
:101BB0008A95E9F71092E7021092E4021092B802B7
:101BC0000E94A60D90E080E00E94FF0790E080E078
:101BD0000C94E907CF92DF92EF92FF92CF93DF93BD
:101BE00000D000D0CDB7DEB70E948C0A6B017C011B
:101BF00080910403882321F080910503811115C091
:101C0000C0920003D0920103E0920203F09203031A
:101C10000E94CD0D0F900F900F900F90DF91CF91FC
:101C2000FF90EF90DF90CF900895198282E08A8331
:101C3000C701B6010E94C6068B838EEF8C8364E0D9
:101C4000CE0101960E941105DBCF0F931F9341E057
:101C500050E060E070E004C0440F551F661F771F1E
:101C60008A95D2F7CB01BA016095709580959095D1
:101C700000910003109101032091020330910303AE
:101C800060237123822393231F910F910C94EA0DFB
:101C90009091AB02809589238093AB02282F277007
:101CA00071F4282F082E000C330B9217130639F00D
:101CB0008595859585950E94250E1092AB02089515
:101CC0000F931F9341E050E060E070E004C0440FC8
:101CD000551F661F771F8A95D2F780910003909158
:101CE0000103A0910203B09103038A019B01082B19
:101CF000192B2A2B3B2BC901B8011F910F910C9472
:101D0000EA0D6093B0027093B1028093B202909397
:101D1000B3020C94CD0D1092AE0280911201EAEF45
:101D2000F1E0882359F08091D10287FF07C08EE14E
:101D3000DF011D928A95E9F70C94CD0D86E0F8CF6E
:101D40001F93CF93DF93CDB7DEB7AA970FB6F89462
:101D5000DEBF0FBECDBF8EE293E02091F100FC010B
:101D60002193CF01F3E086339F07B9F780912F03CA
:101D7000893009F444C018F5823009F4B7C08330C3
:101D800009F46CC0813031F580912E03813A11F550
:101D90008091E800877F8093E800809132039091E2
:101DA0003303892B41F560E28AE093E070E00E9402
:101DB000B0048091E8008B778093E8000BC08B30F3
:101DC00009F469C008F481C0823409F4A0C08534E4
:101DD00009F4BAC08091E80083FF65C280912E03A8
:101DE00090912F039A3008F05EC2E92FF0E0E05D99
:101DF000FB4D0C94A02260E090E080E0D7CF809172
:101E00002E03813239F78091320390913303029788
:101E100008F78091E800877F8093E8008091E800D0
:101E200082FF17C09091F3008091F200029729F48D
:101E30008091F1008B7F813021F48091F1008093BB
:101E400009038091E8008B778093E8000E949F034C
:101E5000C1CF80912C038111E1CFBCCF80912E03A3
:101E6000813A09F0B7CF8091320390913303892BE7
:101E700009F0B0CF8091E800877F8093E8008091DF
:101E8000E80080FFFCCF809112018093F1008091E7
:101E9000E8008E77D9CF80912E03813209F09ACF56
:101EA0008091320390913303892B09F093CF809175
:101EB000E800877F8093E8000E949F0380913003B1
:101EC000809312010E948B0E85CF80912E03813268
:101ED00009F080CF8091E800877F8093E8000E941E
:101EE0009F03809131038093080374CF80912E0368
:101EF000813A09F06FCF8091E800877F8093E800F6
:101F00008091E80080FFFCCF80910803BECF8091D4
:101F10002E03803C09F05ECF809132039091330311
:101F2000029739F58091300390913103892B09F59F
:101F30008091E800877F8093E8006BE170E08EEF8E
:101F400093E00E94510482CF80912E03803C09F0DF
:101F500041CF8091320390913303079751F48091E0
:101F6000E800877F8093E80062EB70E08CE493E008
:101F7000E8CF8091EB0080628093EB002BCF80381C
:101F800099F0823809F08FC1809132038F708730C9
:101F900008F089C18093E9008091EB0085FB8827D8
:101FA00080F91092E90006C080912A0390912B03DA
:101FB000911182609091E800977F9093E800809360
:101FC000F1001092F1008091E8008E7768C18823BB
:101FD00009F456C1823009F066C180913003811145
:101FE00059C1809132038F702FEF280F263008F0EF
:101FF0005AC18093E9002091EB0020FF4BC1933040
:1020000031F48091EB0080628093EB0043C19091AA
:10201000EB0090619093EB0021E030E001C0220FD3
:102020008A95EAF72093EA001092EA008091EB008B
:102030008860EACF811137C1109130031F778091FA
:10204000E3008078812B8093E3008091E800877F14
:102050008093E8000E949F038091E80080FFFCCFFE
:102060008091E30080688093E30082E0111183E0B7
:1020700080932C0318C18058823008F014C18091DD
:102080003003909131038C3D23E09207A1F583E06A
:102090008A838AE289834FB7F894DE01139620E0A1
:1020A0003EE051E2E32FF0E050935700E49120FF2F
:1020B00003C0E295EF703F5FEF708E2F90E0EA3043
:1020C000C0F0C7968D939D932F5F243159F74FBF72
:1020D0008091E800877F8093E8006AE270E0CE019B
:1020E00001960E94B0048091E8008B778093E8000D
:1020F000DAC0C096E7CF4091320350913303292FC5
:1021000033272330310569F1A0F42130310509F47A
:102110006CC062E570E086E195E02230310509F09F
:10212000C2C02091E800277F2093E8000E9451045C
:10213000DACF2132310509F440C02232310509F4E9
:1021400048C02F30310509F0AEC0E0EDF5E0E49174
:102150006E2F70E08EEC95E06115710509F4A3C057
:10216000E0CF992781309105C1F0009771F082305E
:102170009105D9F0039709F096C0EAE7F5E0E491FC
:102180006E2F70E08AE795E0E7CFEAECF5E0E491A6
:102190006E2F70E08AEC95E0DFCFE8E9F5E0E4919E
:1021A0006E2F70E088E995E0D7CFE0E8F5E0E491A4
:1021B0006E2F70E080E895E0CFCF41155105D1F04A
:1021C0004130510509F06FC069E070E081E495E0AD
:1021D000A8CF4115510599F04130510509F063C070
:1021E0006CEB70E08AE194E09CCF62E170E088E6FD
:1021F00095E097CF69E070E088E295E092CF60E4E7
:1022000070E086ED94E08DCF803809F04CC080916D
:10221000E800877F8093E80080912D038093F10090
:10222000D2CE811140C0109130031230E0F5809180
:10223000E800877F8093E80010932D030E949F039E
:10224000112311F084E005C08091E30087FDFACFEF
:1022500081E080932C0342E061EC81E00E94BE03A8
:1022600042E261EC82E00E94BE0342E361EC83E063
:102270000E94BE0342E360EC84E00E94BE0313C0F0
:1022800080913003813079F481E0933009F080E06F
:1022900080932B031092E9008091E800877F809360
:1022A000E8000E949F038091E80083FF0AC08091AC
:1022B000E800877F8093E8008091EB008062809344
:1022C000EB00AA960FB6F894DEBF0FBECDBFDF912C
:1022D000CF911F9108951F920F920FB60F92112464
:1022E0002F933F934F935F936F937F938F939F931E
:1022F000AF93BF93CF93DF93EF93FF93D091E90018
:10230000DF708091EC00C82FC17080FDC0E8109292
:10231000E9008091F000877F8093F00078940E941C
:10232000A00E1092E9008091F00088608093F00088
:10233000CD2BCF70C093E900FF91EF91DF91CF914A
:10234000BF91AF919F918F917F916F915F914F91CD
:102350003F912F910F900FBE0F901F9018951F92D5
:102360000F920FB60F9211242F933F934F935F93C9
:102370006F937F938F939F93AF93BF93EF93FF934D
:102380008091E10082FF09C08091E20082FF05C0D8
:102390008091E1008B7F8093E1008091DA0080FFE3
:1023A00024C08091D80080FF20C08091DA008E7F09
:1023B0008093DA008091D90080FF9FC080E189BDC1
:1023C00082E189BD09B400FEFDCF81E080932C033A
:1023D00080910703811109C00E9423030E94F0032A
:1023E0008091E20084608093E2008091E10080FFB0
:1023F00017C08091E20080FF13C08091E2008E7FC1
:102400008093E2008091E20080618093E2008091FD
:10241000D80080628093D80019BC85E080932C039B
:102420008091E10084FF2DC08091E20084FF29C0EB
:1024300080E189BD82E189BD89B5982F917080FFC7
:10244000FBCF8091D8008F7D8093D8008091E100F0
:102450008F7E8093E1008091E2008F7E8093E20086
:102460008091E20081608093E20080912D038823B7
:1024700009F449C084E080932C030E948B0E0E94D3
:1024800015088091E10083FF27C08091E20083FF5F
:1024900023C08091E100877F8093E10082E08093F8
:1024A0002C0310922D038091E1008E7F8093E10038
:1024B0008091E2008E7F8093E2008091E200806153
:1024C0008093E20042E060E080E00E94BE038091E1
:1024D000F00088608093F000FF91EF91BF91AF9181
:1024E0009F918F917F916F915F914F913F912F912C
:1024F0000F900FBE0F901F90189519BC10922C03CF
:102500001092070372CF8091E30087FD93E09093D0
:102510002C03B3CF8823B1F19CEF980F913A38F494
:10252000682F88EF91E00E9467060C94190790E2EB
:10253000980F983088F4877021E030E0A90102C03C
:10254000440F551F8A95E2F7CA0180959091AE021B
:1025500089238093AE02E9CF9BE5980F933020F456
:1025600090E080E00C94FF0798E5980F973120F4F5
:1025700090E080E00C94E907803F20F00E9429055C
:102580000C94A60D0895CF93C82F882309F46EC02C
:102590008CEF8C0F813AB8F580911201882311F1EC
:1025A0008091D10287FF1EC0EC2FE695E695E69557
:1025B000F0E0E850FE4F828190E04C2F477021E020
:1025C00030E002C0220F331F4A95E2F782239323A3
:1025D000892B89F06C2F88EF91E00E9467060E949A
:1025E000190709C0EAEFF1E08191C81799F382E079
:1025F000E030F807C9F76C2F88EF91E00E94910650
:10260000CF910C94190780E28C0F883068F4C77062
:1026100021E030E001C0220FCA95EAF78091AE02B6
:10262000822B8093AE02ECCFEBE5EC0FE33040F46D
:10263000F0E0E953FE4F808190E0CF910C94FF07CA
:10264000E8E5EC0FE73150F4F0E0EE0FFF1FE65342
:10265000FE4F80819181CF910C94E907C03F30F00B
:102660008C2F0E94F005CF910C94A60DCF91089568
:10267000CF93C82F0E94C312C93349F42FEF87EEBE
:1026800093E0215080409040E1F700C000008C2F83
:10269000CF910C948A120F931F93CF93DF93C42F83
:1026A000D22FFC0182818823A1F0409337020E943F
:1026B0009A0D9093230280932202C77081E001C09B
:1026C000880FCA95EAF7DF91CF911F910F910C9473
:1026D000DF0710913702141335C0809122029091C8
:1026E00023020E945806883C910560F5C0E2CD0F98
:1026F0001D17B9F080E2810F883040F4177081E037
:1027000001C0880F1A95EAF70E94D407C83048F430
:1027100081E09D2F977001C0880F9A95EAF70E947B
:10272000DF07802F0E943813C83098F4D77081E0FB
:1027300001C0880FDA95EAF7DF91CF911F910F91D1
:102740000C94D407C77081E001C0880FCA95EAF7DE
:10275000F3CFDF91CF911F910F9108954F925F9228
:102760006F927F928F929F92AF92BF92CF92DF92A1
:10277000EF92FF920F931F93CF93DF9300D000D07F
:102780000F92CDB7DEB77C01FC0183819481892B48
:1027900039F01081D180812F8D218F3F09F03CC607
:1027A0000F900F900F900F900F90DF91CF911F918E
:1027B0000F91FF90EF90DF90CF90BF90AF909F90E0
:1027C0008F907F906F905F904F9008950E94070ABE
:1027D000082F682F89819A810E948707E12FF0E0F6
:1027E00026E0D29EE00DF11D112434E5039FE00D9B
:1027F000F11D1124EE0FFF1FE455FF4F05911491B9
:1028000080910403882321F0809105038111F0C594
:102810000932FDE51F0709F09EC0F7018281882378
:10282000C9F18091BF0291E0980F9770887F953031
:1028300008F4892B8093BF028091BF028770FFEF5D
:102840008F9FC00111249595879595958795992718
:10285000909389008093880090938B0080938A00E6
:1028600090938D0080938C004091BF025091C002E4
:102870006091C1027091C2028FE090E00E94CC2270
:102880006091000370910103809102039091030312
:102890000E948C0AF7018281882309F481C0980183
:1028A000215E3C452530310508F07AC06FE1600FAC
:1028B0006093BB028CE090E00E94BA22F701828113
:1028C000882309F4BAC5109237020230FCE51F07CD
:1028D00008F4C1C506312CE5120738F098012A5FCB
:1028E0003C452730310508F0B6C50E94DC0A9093BC
:1028F000D2028093D1020F303CE5130709F4C7C11F
:1029000008F041C108309CE5190709F4AAC108F094
:1029100016C10430FCE51F0709F497C108F0FCC09C
:1029200002303CE5130709F488C103301C4509F463
:1029300088C16091D1021091D20284E090E00E949F
:10294000BA22612F81E290E00E94BA220E948B0E8F
:1029500019C081E153C50C322DE5120759F00D3233
:102960003DE5130709F096CF02E221E041EE6DE26A
:102970007DE505C001E221E041EE6CE27DE5C701A5
:102980000E944B138091AB02877009F409CFF701C5
:102990008281882309F404CF82E00E94480E00CF90
:1029A00017FF74C0882309F489CF8091AE02809309
:1029B00036021092AE028091BB02813009F441C010
:1029C0008823D9F1823009F449C0843009F44DC01C
:1029D0008FE39CE90197F1F700C000005801E894EB
:1029E000B7F8ECE0CE2ED12C95010C2C02C0369518
:1029F00027950A94E2F72F7087E290E029F0822F62
:102A000090E02A30B8F54D960E94381394E0C91A28
:102A1000D108ECEFCE16EFEFDE0631F78091BB0266
:102A2000813071F1882341F1823031F1843061F1DC
:102A3000809136028093AE0241CF82EE0E94C31293
:102A4000C7CF83E00E94CA0788E10E94C31288E1D1
:102A50000E948A1283E00E94BF07BACF82EE0E94D2
:102A6000C31287E50E943813B3CF86EE0E94381355
:102A700088E1F8CF0697C8CF82EE0E948A12D8CF9D
:102A80008CE20E943813D4CF88E2FBCF033FFCE5F1
:102A90001F0751F198F4083D3CE51307F9F0093D93
:102AA0008CE5180799F1073D9CE5190709F006CF59
:102AB00006E221EE41EE67ED7CE561CF053FECE5F6
:102AC0001E07F1F0B8F0063F2CE5120709F0F6CE2C
:102AD00007E225EE46EE66EF7CE551CF07E225EEF4
:102AE00045EE68ED7CE54BCF06E221EE40EE63EF6C
:102AF0007CE545CF07E225EE44EE64EF7CE53FCF71
:102B000006E221EE42EE65EF7CE539CF08E221E0F6
:102B100045EE69ED7CE533CF8091D10280610630CE
:102B20009CE5190709F447C08091D10288600730FD
:102B30001C4508F440C08091D10280623CC00B303B
:102B4000FCE51F0709F49BC068F409303CE5130756
:102B500009F48BC00A301C4509F0EBCE8091D102FC
:102B60008C6029C08091D1028B7F0D309CE51907C4
:102B700011F18091D1028D7F0E301C45E0F08091E3
:102B8000D102877F18C00A3FFCE51F0709F461C026
:102B900060F502313CE5130709F481C078F4003197
:102BA0009CE5190709F477C08091D1028F7B013130
:102BB0001C4509F0BECE8093D102BBCE0431FCE5AA
:102BC0001F0709F47AC008F470C005311C4509F0EC
:102BD000B0CE8091D10282FB992790F921E0922713
:102BE00090FB82F990FB83F9E6CF0D3F8CE5180747
:102BF00009F449C070F40B3FECE51E0771F18091B8
:102C0000D2028E7F0C3F1C4509F093CE8093D202F6
:102C100090CE0F3F2CE5120709F44BC060F101156F
:102C20001D4509F086CE8091D202982F9095917023
:102C30008E7F892B90FB81F9E9CF8091D102816051
:102C4000BACF8091D1028260B6CF8091D1028460E8
:102C5000B2CF8091D2028160D9CF8091D2028260BE
:102C6000D5CF8091D1028064A6CF0E948B0E809137
:102C7000D1028068A0CF8091D2028360C7CF8091BB
:102C8000D1028E7F98CF8091D2028D7FBFCF80916D
:102C9000D1028F7E90CF8091D1028F7D8CCF0E9408
:102CA0008B0E8091D1028F7786CF8091D102837F66
:102CB00082CF8091D2028C7FA9CF0E948B0E9091FF
:102CC000D102892F97FB87F9805875CF882309F4A3
:102CD00055C00E3D9CE5190709F446C00830EDE5E6
:102CE0001E0709F444C001151C4509F047C00E94A5
:102CF0008B0E2FEF34E38CE0215030408040E1F721
:102D000000C00000F89481E08093E00080E28093AE
:102D1000D8001092C900EFE1FEE43197F1F700C04E
:102D200000001DBA109268001CBC10BE1FBA1092A1
:102D30007A0010926E0010926F0010927100109243
:102D400072001092C9001092BC0014B817B81AB8DB
:102D50001DB810BA1092BC0015B818B81BB81EB830
:102D600011BA0C94003F0ECE0E94000C0BCE809145
:102D7000060391E089278093060304CEF7010081C2
:102D80001181882309F444C0C8010E94070AD82E83
:102D9000682FC8010E948707B8018D2D0E94640822
:102DA000082FD92EB82EF701C580C2947FE0C72224
:102DB000128111111092AD028091AB028770C1F0A7
:102DC0001123B1F08D2D807F803449F090E2900F77
:102DD000983070F0803619F4F6EFBF1649F082E0B3
:102DE0000E94480E8091AB028770AA24A39481119F
:102DF000A12C9D2C92945FE095226BE0462E491405
:102E000008F441C0E92DF0E0E65CFB4D0C94A022F3
:102E1000C8010E945E07D82EBFCF2D2D2F70C22E65
:102E20008D2D807F19F0C29440EFC4221123C9F088
:102E3000CC2069F080E2800F883010F0B1100BC018
:102E40008091AE02C82AC092AE020E941907802F5C
:102E50000E94C31218C08091AD02C82AC092AD0270
:102E6000F4CF802F0E948A12CC2069F0C094005EBB
:102E7000083010F0B11057C08091AE02C822C09245
:102E8000AE020E941907292D2850330B243031053A
:102E900010F40E941508112379F08D2D807F803663
:102EA00019F436EFB31641F080913902823009F0FF
:102EB00097C283E080933902AA20A9F08091AB02E7
:102EC00080FD11C0F70112828595859585950E9438
:102ED000600EC7010E94AE138091AB028595859567
:102EE00085950E94250E85E0F701DE01119601907F
:102EF0000D928A95E1F789819A810E945E079A81F5
:102F0000E981F0E026E0929FE00DF11D112434E507
:102F1000839FE00DF11D1124EE0FFF1FE455FF4FBD
:102F2000859194913DCC8091AD02C822C092AD02B2
:102F3000A8CF3D2D3F70832E8D2D807F803219F0DC
:102F4000829430EF8322BB2041F081E0B81631F14A
:102F5000112381F1CC2049F17ACF112391F0909186
:102F6000AF02892F8829C11003C00E94DF078BCFD1
:102F7000E1E0CE12FACF981709F485CF8093AF0223
:102F800082CFC11006C00E941307882D0E94D4076B
:102F90007ACFF1E0CF1609F476CFF5CF112339F0CF
:102FA000442443944C1408F46ECF882DDECFC11016
:102FB0006ACFEBCFCC2049F329E3522EB51009C0DC
:102FC0002FEF37EE83E0215030408040E1F700C022
:102FD0000000802F0E948A1256CF8D2D86958695EF
:102FE000837069F0813009F04ECF802F9D2D937052
:102FF000111102C090E080E00E94E90744CF802FC9
:103000009D2D9370111102C090E080E00E94FF0797
:103010003ACF802F112329F00E94F0050E94A60DBF
:1030200032CF0E942905FACF8D2D837009F067C039
:10303000111129CF202F229526952770220F220FBC
:10304000402F4F7050E070E060E0022E04C0440F4B
:10305000551F661F771F0A94D2F780E090E0DC01CD
:1030600004FF0FC08FE090E0A0E0B0E004C0880F44
:10307000991FAA1FBB1F2A95D2F780959095A095FE
:10308000B0952D2D269526952370223029F1D8F460
:103090004090B0025090B1026090B2027090B302C2
:1030A000213069F0842B952BA62BB72BBC01CD01C9
:1030B00064217521862197210E94810EE4CE442946
:1030C0005529662977292A013B01482A592A6A2A63
:1030D0007B2AC301B201F0CF842B952BA62BB72BF3
:1030E0004090B0025090B1026090B2027090B30272
:1030F000BC01CD016425752586259725DDCF8695F4
:10310000112311F08D2D8170882309F4BCCE202F5E
:10311000229526952770220F220F402F4F7050E0E6
:1031200070E060E0022E04C0440F551F661F771F39
:103130000A94D2F780E090E0DC0104FF0FC08FE03A
:1031400090E0A0E0B0E004C0880F991FAA1FBB1F49
:103150002A95D2F780959095A095B0952D2D26951E
:1031600026952370223029F1D8F440900003509026
:1031700001036090020370900303213069F0842BF7
:10318000952BA62BB72BBC01CD016421752186217F
:1031900097210E94EA0D77CE44295529662977297F
:1031A0002A013B01482A592A6A2A7B2AC301B20113
:1031B000F0CF842B952BA62BB72B4090000350907B
:1031C00001036090020370900303BC01CD016425EC
:1031D000752586259725DDCF2D2D2F70C22E112325
:1031E00029F0822F0E94600E802FBFCE802F0E9478
:1031F000D4078C2D0E94250E46CE802F32EFB316B9
:1032000009F452C03B1578F090EFB91629F1E1EFBF
:10321000BE1609F441C0112309F46AC0C11017CECB
:103220008D2D8F713EC0F3EFBF1609F442C094EFAD
:10323000492EB410F0CF112309F44FC00D2D0F719A
:10324000802F0E94600E28E0029FC001112483603D
:103250008093AB02802F25C01123C1F0C11013CE83
:103260002D2D2F7161E070E080E090E004C0660FCA
:10327000771F881F991F2A95D2F74090000350901E
:1032800001036090020370900303A1CF552453946F
:103290005C1408F4F8CDE4CF8D2D8F71112309F45F
:1032A000A9CF0E94600EEFCD8D2D8F711123C9F330
:1032B000A1CF60E070E0CB01112309F46ACF2D2D7E
:1032C0002F7161E070E080E090E004C0660F771F2E
:1032D000881F991F2A95D2F75CCF81E00E94480E83
:1032E00031E03C1508F0CFCD82E00E94480ECBCDF6
:1032F000CC2059F0893309F06CCE8FEF97EEE3E0E4
:1033000081509040E040E1F762CE8D2D8F7172CFF9
:10331000E0E1E00FE73008F03EC0F0E0EA5BFB4D93
:103320000C94A022112309F4AECD80913B0291E0D0
:10333000892780933B02A7CD10933B02A4CD81E067
:103340008127F7CF11119FCD81E0F3CF11119BCDD4
:1033500010923B0298CD112321F082E08093390234
:10336000F3CF80913902823021F481E080933902D9
:103370008ACD833009F087CD10923902E9CF11232D
:1033800039F080913A02882381F210923A027BCD83
:10339000CC2059F278CD80913A02CC20A9F0882334
:1033A00041F080913B0291E0892780933B0210928B
:1033B0003A02802F11114CCD0E948A1286E0F7014B
:1033C00011928A95E9F75FCD882309F45CCD11113C
:1033D0005ACD80913B0291E0892780933B02D5CF63
:1033E000813009F069CD1092390210923B0264CD10
:1033F0001982F70182818111ACCA82E18A83F701C7
:1034000080818B8381818C838EEF8D8365E0CE01FB
:1034100001960E941105FCC985E0DE01119601901C
:103420000D928A95E1F7F701228189819A81211114
:10343000CDC90E945E07082FD1C906311C4509F08D
:103440009DCC8091380269E2811165E388EF91E0BB
:103450000E94670614C006312CE5120709F036CC2D
:103460008091AE028A7A91E009F490E0909338025C
:1034700069E2811165E388EF91E00E9491060E9464
:10348000190780CA1F93CF93DF9380914102807FF9
:10349000A9F480913E02882389F080917302D09133
:1034A000420260913C0270913D02A0913F02B091B6
:1034B0004002C62FC72316E0D81304C0DF91CF9176
:1034C0001F91089590E0109711F0CF3F19F40196E5
:1034D0008770F2CF189F9001199F300D1124F901C8
:1034E000ED5BFD4F41814713F2CF40814613EFCF93
:1034F00042814111ECCF438154814A1B5B0B483C14
:10350000510528F7809141028F70806180934102BC
:10351000F901E85BFD4F80818F70806180838CE3CF
:1035200092E00E94AE13DF91CF911F910C94B507EA
:10353000AF92BF92CF92DF92EF92FF920F931F93C1
:10354000CF93DF93CDB7DEB761970FB6F894DEBFA8
:103550000FBECDBF8C0185E0F801DE011D96019004
:103560000D928A95E1F7F80180819181E2802CE348
:10357000A22E22E0B22E60913F02709140026115AE
:10358000710509F43EC130913C0240913D02232F68
:1035900024232F3F09F435C1C380D480F0903E022C
:1035A000F601E61BF70BFF2009F4FBC02091410256
:1035B000522F507FE83CF10508F0BBC0511178C094
:1035C000FE2C491321C038131FC0E1101DC02F70FD
:1035D000206120934102C5010E94AE1380914102F7
:1035E000F80185838F2D61960FB6F894DEBF0FBE6C
:1035F000CDBFDF91CF911F910F91FF90EF90DF90A2
:10360000CF90BF90AF900895CD2829F0282F29237F
:103610002F3F09F022C120E0F22FF170DF2E20FFB2
:103620003DC0209173024091420256E0241315C020
:103630008D879E878D859E850E94490A292F229518
:103640002F702230F8F0243020F59F70F9F0F80147
:103650009581907FD9F4D12C1FC030E0529FF001AA
:10366000539FF00D1124ED5BFD4F6181961306C051
:103670006081861303C06281E61210C02F5F3F4F46
:103680002770D4CF9F7011F0882329F3805E883093
:1036900010F3C8010E94AE13FD2CA4CFEE2009F454
:1036A000A1CF80914102816080934102F12C9ACF99
:1036B000491312C0381310C0E1100EC0F801258361
:1036C000C8010E94AE1386E0F801ACE3B2E00190BD
:1036D0000D928A95E1F786CF8D879E878D859E8591
:1036E0000E94530A882309F1EE20F9F080914102EB
:1036F000803270F020913C0230913D0238872F8358
:103700001986DB86CA868C87CE0107960E94AE1387
:1037100086E0F801ACE3B2E001900D928A95E1F702
:103720000E94421AFF24F3945DCFC8010E94AE1399
:10373000F9CF51110AC08CE392E00E94AE1386E0EB
:10374000F50111928A95E9F7B1CF49130FC03813EB
:103750000DC0E1100BC0F8012583C8010E94AE1313
:1037600086E0F50111928A95E9F73CCF8D879E8717
:103770008D859E850E94530A8823B9F2EE20A9F216
:1037800080914102803220F220913C0230913D0232
:103790003A8329831B82DD82CC828E83CE010196FF
:1037A000B5CFE83CF105E0F6FE2CEE2009F4BDCFE4
:1037B000491316C0381314C08091410280FD83CF95
:1037C000982F907F09F47FCFF8018583903F09F40B
:1037D00077CF982F907F905F8F70892B858370CFE4
:1037E0008D879E878D859E850E94530A811190CF7B
:1037F00080914102816080934102C8010E94AE1312
:10380000F1CEEE2009F491CF8D879E878D859E8520
:103810000E94530AF82E882309F487CF86E0F80126
:10382000ACE3B2E001900D928A95E1F780913C0201
:1038300090913D020E94490A92959F70963051F4F2
:10384000863F41F080913B0291E0892780933B02C3
:1038500090933A020E94421AC5CE21E02E25DCCE7A
:103860001F93CF93DF93CDB7DEB767970FB6F8946A
:10387000DEBF0FBECDBF6D8B7E8B8F8B8E899F89F8
:10388000892BE1F0852F84238F3F09F098C05FEFEB
:103890004FEF14C030913B02332309F44EC0E42FA4
:1038A000F0E036E0539FE00DF11D1124EE0FFF1FF5
:1038B000E15EFE4F40815181822B8C931A8A198AD6
:1038C0004B8B5C8B85E0FE017396DE011D960190AB
:1038D0000D928A95E1F786E0FE013D96DE0117968E
:1038E00001900D928A95E1F7CE0107960E94981AF1
:1038F000811112C086E0FE013796DE01119601901B
:103900000D928A95E1F78A859B85892B29F08F8115
:10391000988589238F3FC9F516E0809173029091B5
:103920004202891320C067960FB6F894DEBF0FBE1F
:10393000CDBFDF91CF911F91089580958223BDCF98
:1039400096E0929FD001939FB00D1124AD5BBD4FC7
:10395000FE01319601900D929A95E1F78093420213
:103960000E94B507D9CF819FC00111248D5B9D4F67
:103970000E94981A8823B9F28091730290E0019610
:103980008770992780937302C8CF2091420230E05C
:10399000C90101968770992740917302481719064B
:1039A00079F60E948B0E109242021092730286E00A
:1039B000ECE3F2E0DF011D928A95E9F7ADCF81E0FB
:1039C00090E0042E01C0880F0A94EAF7A52FB0E01A
:1039D000A85DBD4F2C913D8931115CCF322F38232A
:1039E0005BCF8F929F92BF92CF92DF92EF92FF9226
:1039F0000F931F93CF93DF9380910601909107015E
:103A0000892B91F0809119028F5F809319028111A7
:103A10000BC00E94C80C90E09093070180930601B0
:103A2000892B11F40E94860B23EC822E22E0922E29
:103A3000740110E000E097E0C92EC00E802F0E94B4
:103A4000740C8C2D0E94740C802F0E943F0DE70196
:103A500099917E01D12C891729F0FE01319780833D
:103A6000DD24D3948C2D0E943F0DF7019681891798
:103A700009F47AC0868381E08D29182B0E94C00A40
:103A80000F5F0730C1F60E949A0D60911B02709182
:103A90001C0290931C0280931B0220911A0230E0BA
:103AA000261B370B820F931F6BEF70E00E9478226A
:103AB000E82E392F082F80931A02F0901E02FF2063
:103AC00009F4A3C010921E02E091B902F091BA026B
:103AD000AF01425F5F4F20E08BEFB82E6BEF70E0DD
:103AE000A191AB3F99F0CA2ED12C8E2D932F0A179E
:103AF000E8F18C199D09092E000CAA0BBB0B4E97FF
:103B0000A105B105C8F1DF011197BC92E417F507D3
:103B100039F720931E02111102C0211178C01092B2
:103B20001D02A091B902B091BA0290911E02E6ED79
:103B3000F2E080E03191E40129914E01321751F019
:103B40003C913B3FD9F40C93AF0141505109EA013C
:103B5000288391E01196D2E0E43EFD0759F7909357
:103B60001E0280931D0257C080E086CFDB01AC1996
:103B7000BD098A0F9B1FBFCF2F2DC8CF81E0EACF91
:103B80009170892B09F458C08091200290912102F4
:103B90008130984780F01092060360910003709185
:103BA000010380910203909103030E948C0A1092FA
:103BB0002102109220028091200290912102019610
:103BC0009093210280932002812FDF91CF911F914A
:103BD0000F91FF90EF90DF90CF90BF909F908F90CC
:103BE00008950E94860A2EC0892B71F3109221023B
:103BF00010922002609100037091010380910203F2
:103C0000909103030E948C0ADFCF111188CF80911D
:103C10001D02811184CF8091200290912102209178
:103C20000603222309F3009709F0AACF0E947D0A18
:103C30000E947A0A0E94770AC0911F02CC2389F25F
:103C40000E947A0A81E0C827C0931F029DCFCDB79A
:103C5000DEB7C955D1090FB6F894DEBF0FBECDBF90
:103C600084B7877F84BF0FB6F894A89580916000D1
:103C7000886180936000109260000FBE80E890E041
:103C80000FB6F89480936100909361000FBE85B7E2
:103C9000806885BF85B7806885BF0E9423030E9426
:103CA000F0038091E20084608093E2007894809138
:103CB0002C038823A1F01091E9001F709091EC0073
:103CC000892F817090FD80E8182B1092E900809177
:103CD000E80083FD0E94A00E1F701093E90082E0AF
:103CE00084BD93E095BD9AEF97BD80936E000E94CE
:103CF000C80C90E090930701809306010E94C00ACF
:103D00000E94CF0AE3ECF2E081ED92E0A6EDB2E092
:103D100011921D928E179F07D9F78EE090E00E94B6
:103D2000EE228093B9029093BA02FC010E962BEF1B
:103D30002193E817F907E1F790E080E00E94B422B0
:103D40008F3E9E4F11F00E94000C8CE090E00E948C
:103D5000A62290E0B0E0A0E08093BB029093BC026A
:103D6000A093BD02B093BE0289EA8093800089E0EF
:103D70008093810024982C983F988AB18F7C8AB9CF
:103D80006E98479A8BB180638BB9769A8FE090E0FA
:103D90000E94AE226093BF027093C0028093C10262
:103DA0009093C20267704FEF649FB0011124759524
:103DB000679575956795772770938900609388005C
:103DC00070938B0060938A0070938D0060938C00D9
:103DD0000E94860B90E080E00E94B4228F3E9E4FAE
:103DE00011F00E94000C82E090E00E94A6228093D5
:103DF000F1020E94DC0A9093D2028093D10283E008
:103E000090E00E94A622682F70E090E080E00E947F
:103E1000810E6091000370910103809102039091E3
:103E200003030E948C0A88E091E09093D40280936F
:103E3000D302EE24EA949EEFF92E23E0422E31E4E1
:103E4000A32EB12CAC0EBD1EF2E0AF0EB11C44EEA1
:103E5000C42E42E0D42E50E1552E68E1862E912CDE
:103E600080912C03853009F44CC10E94F11CE2EFD3
:103E7000F2E0A6EDB2E010E000E0302F8D9121914C
:103E8000281709F48AC190E0772473942827422FD9
:103E9000472109F47DC161969FAF619762963FAF5C
:103EA0006297872191E009F490E063969FAF639752
:103EB0000E949A0D8160782F65969FAF8EAF6597AF
:103EC00061964FAD619762965FAD629763966FADF5
:103ED000639765968FAD65970E94301CF801EE5090
:103EE000FD4F80817826708286E0EAEEF2E0DE0106
:103EF000119601900D928A95E1F77090EC02609016
:103F0000ED021091EE020091EF021092EC0210927D
:103F1000ED021092EE021092EF02872D862909F42D
:103F200048C08091E8029091E9020E9458069C01E5
:103F30009091E702992309F4F7C125313105C8F1C1
:103F40009F3F19F09F5F9093E702772059F00E94FE
:103F5000CC059FEF17140CF491E0899F802D11245C
:103F60008093EC02662059F00E94CC059FEF161456
:103F70000CF491E0899F802D11248093ED02309103
:103F8000EC023323B1F02091ED02222391F045EBB6
:103F90003403C0011124992309F425C19093EC0244
:103FA00045EB240390011124332309F420C13093FD
:103FB000ED02812F802B09F448C08091E502909199
:103FC000E6020E9458069C019091E402992309F4AC
:103FD000A7C125313105C8F19F3F19F09F5F90932C
:103FE000E402112359F00E94AC059FEF11160CF466
:103FF00091E0899F802D11248093EE02002359F0D7
:104000000E94AC059FEF10160CF491E0899F802D63
:1040100011248093EF023091EE023323B1F020910E
:10402000EF02222391F045EB3403C00111249923C0
:1040300009F4E1C09093EE0245EB240390011124B2
:10404000332309F4DCC03093EF028091EC029091AD
:10405000ED02892B9091EE02892B9091EF02892B32
:1040600011F00E94A60D86E0FE013196AAEEB2E0A4
:1040700001900D928A95E1F70E9415089091F00247
:10408000891721F00E9415088093F00280912C037B
:10409000843009F0E5CE8093E9008091E80082FF4A
:1040A000DFCE8091E80090E085FF06C00E944203C9
:1040B000882309F4A8C091E08091E8008B77809371
:1040C000E800992309F4CCCE19811111BAC080916E
:1040D0000603882309F4CFC01092060381E0809381
:1040E000050322961FAE229723961FAE2397249690
:1040F000FFAE249763E0CE018F5B9F4F0E941105B6
:10410000AFCE80912C03843011F11092D50280E45F
:104110000FB6F894A895809260000FBE809360005F
:1041200083B7817F846083BF83B7816083BF7894C6
:10413000889583B78E7F83BF0FB6F894A89580913A
:104140006000886180936000109260000FBE8091D3
:104150002B03882309F484CE0E94C80C90E090932E
:104160000701809306010E94C00A0E94CF0AE6ED73
:10417000F2E01192CE16DF06E1F70E94F11CE6EDA7
:10418000F2E081918111B7C0CE16DF06D1F768CE7B
:104190009F5F770C963009F07ACE0F5F1F4F0E307D
:1041A000110509F06ACE6696EFAE66976796EFAE98
:1041B000679768961FAE68970E949A0D8160782F66
:1041C0006A969FAF8EAF6A9766964FAD6697679671
:1041D0005FAD679768966FAD68976A968FAD6A977F
:1041E0000E94301C81CE81E08093EC02D9CE81E028
:1041F0008093ED02DECE81E08093EE021DCF81E060
:104200008093EF0222CF80E4682E712C8E010F5F25
:104210001F4F8091E80085FD0AC08091E8008B77F0
:104220008093E8000E944203882399F344CF809151
:10423000F100F80181938F01F1E06F1A710849F7DD
:104240003ACF1130C1F422961FAE229723961FAFAA
:1042500023978CE0E3E1F1E0D50101900D928A957E
:10426000E1F76096FFAE60976FE0CE018F5B9F4FE6
:104270000E941105F5CD809105038823C1F112300C
:1042800041F01330F1F081E022968FAF229761E088
:1042900032CF6091000370910103809102039091ED
:1042A00003030E94C60622961FAE229723961FAFD5
:1042B000239724968FAF24972596FFAE259764E029
:1042C0001ACF8A81813041F0882341F08230D9F6BB
:1042D00081E08093040302C01092040322961FAE73
:1042E000229723964FAE239780910403E2CF229624
:1042F000EFAE2297CCCF59BC82E189BD09B400FE54
:10430000FDCF8091D8008F7D8093D8008091E00010
:1043100082608093E0008091E00081FDFCCFA0CD21
:10432000232B09F05BCE91CE232B09F00BCE41CE8F
:104330001F921FB61F9211248F939F93AF93BF9329
:104340008091D502811113C08091B4029091B50281
:10435000A091B602B091B7024196A11DB11D809304
:10436000B4029093B502A093B602B093B702BF9186
:10437000AF919F918F911F901FBE1F901895109223
:10438000B9008CE08093B8000895EF92FF920F93EC
:104390001F93CF93DF93182FEB011092BC0084EA98
:1043A0008093BC000E949A0D7C018091BC0087FF25
:1043B00027C08091B900887F883029F08091B900AA
:1043C000887F8031D9F51093BB0084E88093BC00CE
:1043D0000E949A0D8C018091BC0087FF24C020911F
:1043E000B900287F90E080E02831B1F081E090E0D2
:1043F000203411F490E080E09195819591090CC0F2
:10440000CF3FDC0791F20E949A0D8E199F098C17FD
:104410009D0758F28EEF9FEFDF91CF911F910F9183
:10442000FF90EF900895CF3FDC07A9F20E949A0D0C
:10443000801B910B8C179D0770F2ECCF8FEF9FEFD5
:10444000EBCF0F931F93CF93DF93EB018093BB00D0
:1044500084E88093BC000E949A0D8C018091BC007E
:1044600087FF11C02091B900287F81E090E02832B9
:1044700011F490E080E0919581959109DF91CF91C1
:104480001F910F910895CF3FDC0741F30E949A0DD1
:10449000801B910B8C179D0708F38EEF9FEFEECFDB
:1044A0000F931F93CF93DF93EC0184E88093BC00BC
:1044B0000E949A0D8C018091BC0087FF08C08091FA
:1044C000BB0090E0DF91CF911F910F910895CF3FF6
:1044D000DC0789F30E949A0D801B910B8C179D07B6
:1044E00050F38EEF9FEFEECF84E98093BC000895E8
:1044F000AA1BBB1B51E107C0AA1FBB1FA617B7070A
:1045000010F0A61BB70B881F991F5A95A9F7809525
:104510009095BC01CD01089597FB072E16F40094E9
:1045200007D077FD09D00E94782207FC05D03EF421
:10453000909581959F4F0895709561957F4F08954F
:10454000EE0FFF1F0590F491E02D0994F999FECF2D
:1045500092BD81BDF89A992780B50895A6E1B0E093
:1045600044E050E00C94E022A8E1B0E042E050E0EA
:104570000C94E022262FF999FECF92BD81BDF89AC6
:10458000019700B4021639F01FBA20BD0FB6F89497
:10459000FA9AF99A0FBE08950396272F0E94BB221C
:1045A0000E94BA22252F0E94BB22242F0C94BB22EA
:1045B0000196272F0E94BB220C94BA22DC01CB016A
:1045C000FC01F999FECF06C0F2BDE1BDF89A319623
:1045D00000B40D9241505040B8F708950F931F93C7
:1045E000CF93DF938230910510F482E090E0E09168
:1045F0003803F091390330E020E0B0E0A0E03097DC
:1046000099F42115310509F447C0281B390B2430D2
:104610003105C0F58A819B816115710571F1FB013E
:1046200093838283FE0111C04081518102811381F5
:1046300048175907F8F04817590799F4109761F08F
:1046400012960C93129713961C933296CF01DF911A
:10465000CF911F910F910895009338031093390360
:10466000F4CF2115310519F04217530718F49A01B8
:10467000BD01EF01DF01F801C2CF909339038093B0
:104680003803D0CFFE01E20FF31F819391932250A4
:10469000310939832883DACF2091360330913703EB
:1046A000232B41F420910201309103013093370311
:1046B000209336032091000130910101211531052D
:1046C00041F42DB73EB74091040150910501241BE0
:1046D000350B40913603509137034217530708F0CA
:1046E000B5CF241B350B2817390708F4AFCFBC0111
:1046F0006E5F7F4F2617370708F4A8CF640F751F2A
:104700007093370360933603FA01819391939ECFA0
:10471000CF93DF930097E9F0FC0132971382128266
:10472000C0913803D0913903DE0130E020E02097BA
:10473000A1F420813181820F931F209136033091A3
:1047400037032817390709F067C0F0933703E09360
:104750003603DF91CF910895DA01AE17BF0708F055
:1047600040C012964D915C9113979D0141155105E2
:1047700099F7D9011396FC93EE9312974D915D91A1
:10478000A40FB51FEA17FB0779F480819181029687
:10479000840F951FD90111969C938E9382819381EA
:1047A00013969C938E931297B0E0A0E08A819B8130
:1047B0000097B9F5FE0181919191E80FF91F809161
:1047C0003603909137038E179F0719F6109761F5FE
:1047D0001092390310923803D0933703C0933603F5
:1047E000B8CFB383A28340815181840F951FA8174E
:1047F000B90771F44E5F5F4F8D919C911197480FEF
:10480000591F5183408312968D919C91938382838B
:104810002115310509F0ADCFF0933903E09338034A
:1048200098CFDE01EC01C2CF13961C921E92129714
:10483000D3CFF894FFCF620A620A6B0A6B0A6D0A43
:104840006B0A6B0A6B0A620A620A720A6B0A6B0ACB
:10485000720AA70AB30AB80AB10AB60ABD0ABB0AA5
:10486000BF0FE70F5311E70F53111A103B105311ED
:10487000041111110D170D1799179917ED17091834
:10488000881943171418EC18FD18FD189219BF1950
:0A4890009C199F19A619A219AB1973
:10489A0000003A03200020000E05460B250B210BD1
:1048AA001D0B016C376564712F4252473657000061
:1048BA000D010D020D030D040D050D000C010C0276
:1048CA000C030C040C050C000B010B020B030B046C
:1048DA000B050B000A010A020A030A040A050A0068
:1048EA000901090209030904090509000801080266
:1048FA00080308040805080007010702070307045C
:10490A000705070006010602060306040605060057
:10491A000501050205030504050505000401040255
:10492A00040304040405040003010302030303044B
:10493A000305030002010202020302040205020047
:10494A000101010201030104010501000001000245
:10495A0000030004000500818283E200E900EA0006
:10496A00B500B600B700CD008301CC008A019201E0
:10497A0094012102230224022502260227022A0286
:08498A00B300B4006F007000DF
:00000001FF
